{
  "_format": "hh-sol-artifact-1",
  "contractName": "ReluxMarketplace",
  "sourceName": "contracts/ReluxMarketplace.sol",
  "abi": [
    {
      "inputs": [
        {
          "internalType": "address",
          "name": "_usdcToken",
          "type": "address"
        }
      ],
      "stateMutability": "nonpayable",
      "type": "constructor"
    },
    {
      "anonymous": false,
      "inputs": [
        {
          "indexed": true,
          "internalType": "address",
          "name": "owner",
          "type": "address"
        },
        {
          "indexed": true,
          "internalType": "address",
          "name": "approved",
          "type": "address"
        },
        {
          "indexed": true,
          "internalType": "uint256",
          "name": "tokenId",
          "type": "uint256"
        }
      ],
      "name": "Approval",
      "type": "event"
    },
    {
      "anonymous": false,
      "inputs": [
        {
          "indexed": true,
          "internalType": "address",
          "name": "owner",
          "type": "address"
        },
        {
          "indexed": true,
          "internalType": "address",
          "name": "operator",
          "type": "address"
        },
        {
          "indexed": false,
          "internalType": "bool",
          "name": "approved",
          "type": "bool"
        }
      ],
      "name": "ApprovalForAll",
      "type": "event"
    },
    {
      "anonymous": false,
      "inputs": [
        {
          "indexed": true,
          "internalType": "uint256",
          "name": "tokenId",
          "type": "uint256"
        }
      ],
      "name": "ListingCancelled",
      "type": "event"
    },
    {
      "anonymous": false,
      "inputs": [
        {
          "indexed": true,
          "internalType": "uint256",
          "name": "tokenId",
          "type": "uint256"
        },
        {
          "indexed": false,
          "internalType": "address",
          "name": "disputer",
          "type": "address"
        }
      ],
      "name": "ListingDisputed",
      "type": "event"
    },
    {
      "anonymous": false,
      "inputs": [
        {
          "indexed": true,
          "internalType": "address",
          "name": "previousOwner",
          "type": "address"
        },
        {
          "indexed": true,
          "internalType": "address",
          "name": "newOwner",
          "type": "address"
        }
      ],
      "name": "OwnershipTransferred",
      "type": "event"
    },
    {
      "anonymous": false,
      "inputs": [
        {
          "indexed": true,
          "internalType": "address",
          "name": "from",
          "type": "address"
        },
        {
          "indexed": true,
          "internalType": "address",
          "name": "to",
          "type": "address"
        },
        {
          "indexed": true,
          "internalType": "uint256",
          "name": "tokenId",
          "type": "uint256"
        }
      ],
      "name": "Transfer",
      "type": "event"
    },
    {
      "anonymous": false,
      "inputs": [
        {
          "indexed": true,
          "internalType": "uint256",
          "name": "tokenId",
          "type": "uint256"
        },
        {
          "indexed": true,
          "internalType": "uint256",
          "name": "watchId",
          "type": "uint256"
        },
        {
          "indexed": false,
          "internalType": "address",
          "name": "seller",
          "type": "address"
        },
        {
          "indexed": false,
          "internalType": "uint256",
          "name": "price",
          "type": "uint256"
        }
      ],
      "name": "WatchListed",
      "type": "event"
    },
    {
      "anonymous": false,
      "inputs": [
        {
          "indexed": true,
          "internalType": "uint256",
          "name": "tokenId",
          "type": "uint256"
        },
        {
          "indexed": true,
          "internalType": "uint256",
          "name": "watchId",
          "type": "uint256"
        },
        {
          "indexed": false,
          "internalType": "address",
          "name": "buyer",
          "type": "address"
        },
        {
          "indexed": false,
          "internalType": "uint256",
          "name": "price",
          "type": "uint256"
        }
      ],
      "name": "WatchSold",
      "type": "event"
    },
    {
      "inputs": [],
      "name": "DISPUTE_PERIOD",
      "outputs": [
        {
          "internalType": "uint256",
          "name": "",
          "type": "uint256"
        }
      ],
      "stateMutability": "view",
      "type": "function"
    },
    {
      "inputs": [],
      "name": "PLATFORM_FEE_PERCENT",
      "outputs": [
        {
          "internalType": "uint256",
          "name": "",
          "type": "uint256"
        }
      ],
      "stateMutability": "view",
      "type": "function"
    },
    {
      "inputs": [
        {
          "internalType": "address",
          "name": "to",
          "type": "address"
        },
        {
          "internalType": "uint256",
          "name": "tokenId",
          "type": "uint256"
        }
      ],
      "name": "approve",
      "outputs": [],
      "stateMutability": "nonpayable",
      "type": "function"
    },
    {
      "inputs": [
        {
          "internalType": "address",
          "name": "owner",
          "type": "address"
        }
      ],
      "name": "balanceOf",
      "outputs": [
        {
          "internalType": "uint256",
          "name": "",
          "type": "uint256"
        }
      ],
      "stateMutability": "view",
      "type": "function"
    },
    {
      "inputs": [
        {
          "internalType": "uint256",
          "name": "tokenId",
          "type": "uint256"
        }
      ],
      "name": "buyWatch",
      "outputs": [],
      "stateMutability": "nonpayable",
      "type": "function"
    },
    {
      "inputs": [
        {
          "internalType": "uint256",
          "name": "tokenId",
          "type": "uint256"
        }
      ],
      "name": "cancelListing",
      "outputs": [],
      "stateMutability": "nonpayable",
      "type": "function"
    },
    {
      "inputs": [
        {
          "internalType": "uint256",
          "name": "watchId",
          "type": "uint256"
        },
        {
          "internalType": "uint256",
          "name": "price",
          "type": "uint256"
        }
      ],
      "name": "createListing",
      "outputs": [],
      "stateMutability": "nonpayable",
      "type": "function"
    },
    {
      "inputs": [
        {
          "internalType": "uint256",
          "name": "tokenId",
          "type": "uint256"
        }
      ],
      "name": "disputeListing",
      "outputs": [],
      "stateMutability": "nonpayable",
      "type": "function"
    },
    {
      "inputs": [
        {
          "internalType": "uint256",
          "name": "tokenId",
          "type": "uint256"
        }
      ],
      "name": "getApproved",
      "outputs": [
        {
          "internalType": "address",
          "name": "",
          "type": "address"
        }
      ],
      "stateMutability": "view",
      "type": "function"
    },
    {
      "inputs": [
        {
          "internalType": "uint256",
          "name": "tokenId",
          "type": "uint256"
        }
      ],
      "name": "getListing",
      "outputs": [
        {
          "components": [
            {
              "internalType": "uint256",
              "name": "watchId",
              "type": "uint256"
            },
            {
              "internalType": "address payable",
              "name": "seller",
              "type": "address"
            },
            {
              "internalType": "uint256",
              "name": "price",
              "type": "uint256"
            },
            {
              "internalType": "uint256",
              "name": "listingTime",
              "type": "uint256"
            },
            {
              "internalType": "bool",
              "name": "isDisputed",
              "type": "bool"
            },
            {
              "internalType": "bool",
              "name": "isSold",
              "type": "bool"
            }
          ],
          "internalType": "struct ReluxMarketplace.Listing",
          "name": "",
          "type": "tuple"
        }
      ],
      "stateMutability": "view",
      "type": "function"
    },
    {
      "inputs": [
        {
          "internalType": "address",
          "name": "owner",
          "type": "address"
        },
        {
          "internalType": "address",
          "name": "operator",
          "type": "address"
        }
      ],
      "name": "isApprovedForAll",
      "outputs": [
        {
          "internalType": "bool",
          "name": "",
          "type": "bool"
        }
      ],
      "stateMutability": "view",
      "type": "function"
    },
    {
      "inputs": [],
      "name": "listingCount",
      "outputs": [
        {
          "internalType": "uint256",
          "name": "",
          "type": "uint256"
        }
      ],
      "stateMutability": "view",
      "type": "function"
    },
    {
      "inputs": [
        {
          "internalType": "uint256",
          "name": "",
          "type": "uint256"
        }
      ],
      "name": "listings",
      "outputs": [
        {
          "internalType": "uint256",
          "name": "watchId",
          "type": "uint256"
        },
        {
          "internalType": "address payable",
          "name": "seller",
          "type": "address"
        },
        {
          "internalType": "uint256",
          "name": "price",
          "type": "uint256"
        },
        {
          "internalType": "uint256",
          "name": "listingTime",
          "type": "uint256"
        },
        {
          "internalType": "bool",
          "name": "isDisputed",
          "type": "bool"
        },
        {
          "internalType": "bool",
          "name": "isSold",
          "type": "bool"
        }
      ],
      "stateMutability": "view",
      "type": "function"
    },
    {
      "inputs": [],
      "name": "name",
      "outputs": [
        {
          "internalType": "string",
          "name": "",
          "type": "string"
        }
      ],
      "stateMutability": "view",
      "type": "function"
    },
    {
      "inputs": [],
      "name": "owner",
      "outputs": [
        {
          "internalType": "address",
          "name": "",
          "type": "address"
        }
      ],
      "stateMutability": "view",
      "type": "function"
    },
    {
      "inputs": [
        {
          "internalType": "uint256",
          "name": "tokenId",
          "type": "uint256"
        }
      ],
      "name": "ownerOf",
      "outputs": [
        {
          "internalType": "address",
          "name": "",
          "type": "address"
        }
      ],
      "stateMutability": "view",
      "type": "function"
    },
    {
      "inputs": [],
      "name": "renounceOwnership",
      "outputs": [],
      "stateMutability": "nonpayable",
      "type": "function"
    },
    {
      "inputs": [
        {
          "internalType": "address",
          "name": "from",
          "type": "address"
        },
        {
          "internalType": "address",
          "name": "to",
          "type": "address"
        },
        {
          "internalType": "uint256",
          "name": "tokenId",
          "type": "uint256"
        }
      ],
      "name": "safeTransferFrom",
      "outputs": [],
      "stateMutability": "nonpayable",
      "type": "function"
    },
    {
      "inputs": [
        {
          "internalType": "address",
          "name": "from",
          "type": "address"
        },
        {
          "internalType": "address",
          "name": "to",
          "type": "address"
        },
        {
          "internalType": "uint256",
          "name": "tokenId",
          "type": "uint256"
        },
        {
          "internalType": "bytes",
          "name": "data",
          "type": "bytes"
        }
      ],
      "name": "safeTransferFrom",
      "outputs": [],
      "stateMutability": "nonpayable",
      "type": "function"
    },
    {
      "inputs": [
        {
          "internalType": "address",
          "name": "operator",
          "type": "address"
        },
        {
          "internalType": "bool",
          "name": "approved",
          "type": "bool"
        }
      ],
      "name": "setApprovalForAll",
      "outputs": [],
      "stateMutability": "nonpayable",
      "type": "function"
    },
    {
      "inputs": [
        {
          "internalType": "bytes4",
          "name": "interfaceId",
          "type": "bytes4"
        }
      ],
      "name": "supportsInterface",
      "outputs": [
        {
          "internalType": "bool",
          "name": "",
          "type": "bool"
        }
      ],
      "stateMutability": "view",
      "type": "function"
    },
    {
      "inputs": [],
      "name": "symbol",
      "outputs": [
        {
          "internalType": "string",
          "name": "",
          "type": "string"
        }
      ],
      "stateMutability": "view",
      "type": "function"
    },
    {
      "inputs": [
        {
          "internalType": "uint256",
          "name": "tokenId",
          "type": "uint256"
        }
      ],
      "name": "tokenURI",
      "outputs": [
        {
          "internalType": "string",
          "name": "",
          "type": "string"
        }
      ],
      "stateMutability": "view",
      "type": "function"
    },
    {
      "inputs": [
        {
          "internalType": "address",
          "name": "from",
          "type": "address"
        },
        {
          "internalType": "address",
          "name": "to",
          "type": "address"
        },
        {
          "internalType": "uint256",
          "name": "tokenId",
          "type": "uint256"
        }
      ],
      "name": "transferFrom",
      "outputs": [],
      "stateMutability": "nonpayable",
      "type": "function"
    },
    {
      "inputs": [
        {
          "internalType": "address",
          "name": "newOwner",
          "type": "address"
        }
      ],
      "name": "transferOwnership",
      "outputs": [],
      "stateMutability": "nonpayable",
      "type": "function"
    },
    {
      "inputs": [
        {
          "internalType": "address",
          "name": "newUSDCToken",
          "type": "address"
        }
      ],
      "name": "updateUSDCToken",
      "outputs": [],
      "stateMutability": "nonpayable",
      "type": "function"
    },
    {
      "inputs": [],
      "name": "usdcToken",
      "outputs": [
        {
          "internalType": "contract IERC20",
          "name": "",
          "type": "address"
        }
      ],
      "stateMutability": "view",
      "type": "function"
    }
  ],
  "bytecode": "0x60806040523480156200001157600080fd5b50604051620049ce380380620049ce833981810160405281019062000037919062000271565b6040518060400160405280601181526020017f52656c757857617463684c697374696e670000000000000000000000000000008152506040518060400160405280600381526020017f52574c00000000000000000000000000000000000000000000000000000000008152508160009081620000b491906200051d565b508060019081620000c691906200051d565b505050620000e9620000dd6200013960201b60201c565b6200014160201b60201c565b600160078190555080600860006101000a81548173ffffffffffffffffffffffffffffffffffffffff021916908373ffffffffffffffffffffffffffffffffffffffff1602179055505062000604565b600033905090565b6000600660009054906101000a900473ffffffffffffffffffffffffffffffffffffffff16905081600660006101000a81548173ffffffffffffffffffffffffffffffffffffffff021916908373ffffffffffffffffffffffffffffffffffffffff1602179055508173ffffffffffffffffffffffffffffffffffffffff168173ffffffffffffffffffffffffffffffffffffffff167f8be0079c531659141344cd1fd0a4f28419497f9722a3daafe3b4186f6b6457e060405160405180910390a35050565b600080fd5b600073ffffffffffffffffffffffffffffffffffffffff82169050919050565b600062000239826200020c565b9050919050565b6200024b816200022c565b81146200025757600080fd5b50565b6000815190506200026b8162000240565b92915050565b6000602082840312156200028a576200028962000207565b5b60006200029a848285016200025a565b91505092915050565b600081519050919050565b7f4e487b7100000000000000000000000000000000000000000000000000000000600052604160045260246000fd5b7f4e487b7100000000000000000000000000000000000000000000000000000000600052602260045260246000fd5b600060028204905060018216806200032557607f821691505b6020821081036200033b576200033a620002dd565b5b50919050565b60008190508160005260206000209050919050565b60006020601f8301049050919050565b600082821b905092915050565b600060088302620003a57fffffffffffffffffffffffffffffffffffffffffffffffffffffffffffffffff8262000366565b620003b1868362000366565b95508019841693508086168417925050509392505050565b6000819050919050565b6000819050919050565b6000620003fe620003f8620003f284620003c9565b620003d3565b620003c9565b9050919050565b6000819050919050565b6200041a83620003dd565b62000432620004298262000405565b84845462000373565b825550505050565b600090565b620004496200043a565b620004568184846200040f565b505050565b5b818110156200047e57620004726000826200043f565b6001810190506200045c565b5050565b601f821115620004cd57620004978162000341565b620004a28462000356565b81016020851015620004b2578190505b620004ca620004c18562000356565b8301826200045b565b50505b505050565b600082821c905092915050565b6000620004f260001984600802620004d2565b1980831691505092915050565b60006200050d8383620004df565b9150826002028217905092915050565b6200052882620002a3565b67ffffffffffffffff811115620005445762000543620002ae565b5b6200055082546200030c565b6200055d82828562000482565b600060209050601f83116001811462000595576000841562000580578287015190505b6200058c8582620004ff565b865550620005fc565b601f198416620005a58662000341565b60005b82811015620005cf57848901518255600182019150602085019450602081019050620005a8565b86831015620005ef5784890151620005eb601f891682620004df565b8355505b6001600288020188555050505b505050505050565b6143ba80620006146000396000f3fe608060405234801561001057600080fd5b50600436106101a95760003560e01c8063715018a6116100f9578063a9b07c2611610097578063de74e57b11610071578063de74e57b146104a6578063e985e9c5146104db578063ebef75e51461050b578063f2fde38b14610527576101a9565b8063a9b07c261461043c578063b88d4fde1461045a578063c87b56dd14610476576101a9565b806395d89b41116100d357806395d89b41146103c8578063a22cb465146103e6578063a5bbe22b14610402578063a79123a914610420576101a9565b8063715018a614610384578063805351a41461038e5780638da5cb5b146103aa576101a9565b806323b872dd11610166578063560d52d411610140578063560d52d4146102ea5780636352211e146103085780636a3fd1771461033857806370a0823114610354576101a9565b806323b872dd14610296578063305a67a8146102b257806342842e0e146102ce576101a9565b806301ffc9a7146101ae57806306fdde03146101de578063081812fc146101fc578063095ea7b31461022c578063107a274a1461024857806311eac85514610278575b600080fd5b6101c860048036038101906101c39190612c6b565b610543565b6040516101d59190612cb3565b60405180910390f35b6101e6610625565b6040516101f39190612d5e565b60405180910390f35b61021660048036038101906102119190612db6565b6106b7565b6040516102239190612e24565b60405180910390f35b61024660048036038101906102419190612e6b565b6106fd565b005b610262600480360381019061025d9190612db6565b610814565b60405161026f9190612f65565b60405180910390f35b610280610933565b60405161028d9190612fdf565b60405180910390f35b6102b060048036038101906102ab9190612ffa565b610959565b005b6102cc60048036038101906102c79190612db6565b6109b9565b005b6102e860048036038101906102e39190612ffa565b610bf9565b005b6102f2610c19565b6040516102ff919061305c565b60405180910390f35b610322600480360381019061031d9190612db6565b610c1e565b60405161032f9190612e24565b60405180910390f35b610352600480360381019061034d9190612db6565b610ca4565b005b61036e60048036038101906103699190613077565b611209565b60405161037b919061305c565b60405180910390f35b61038c6112c0565b005b6103a860048036038101906103a39190613077565b6112d4565b005b6103b2611320565b6040516103bf9190612e24565b60405180910390f35b6103d061134a565b6040516103dd9190612d5e565b60405180910390f35b61040060048036038101906103fb91906130d0565b6113dc565b005b61040a6113f2565b604051610417919061305c565b60405180910390f35b61043a60048036038101906104359190613110565b6113f9565b005b6104446115a9565b604051610451919061305c565b60405180910390f35b610474600480360381019061046f9190613285565b6115af565b005b610490600480360381019061048b9190612db6565b611611565b60405161049d9190612d5e565b60405180910390f35b6104c060048036038101906104bb9190612db6565b611679565b6040516104d296959493929190613317565b60405180910390f35b6104f560048036038101906104f09190613378565b6116ef565b6040516105029190612cb3565b60405180910390f35b61052560048036038101906105209190612db6565b611783565b005b610541600480360381019061053c9190613077565b611999565b005b60007f80ac58cd000000000000000000000000000000000000000000000000000000007bffffffffffffffffffffffffffffffffffffffffffffffffffffffff1916827bffffffffffffffffffffffffffffffffffffffffffffffffffffffff1916148061060e57507f5b5e139f000000000000000000000000000000000000000000000000000000007bffffffffffffffffffffffffffffffffffffffffffffffffffffffff1916827bffffffffffffffffffffffffffffffffffffffffffffffffffffffff1916145b8061061e575061061d82611a1c565b5b9050919050565b606060008054610634906133e7565b80601f0160208091040260200160405190810160405280929190818152602001828054610660906133e7565b80156106ad5780601f10610682576101008083540402835291602001916106ad565b820191906000526020600020905b81548152906001019060200180831161069057829003601f168201915b5050505050905090565b60006106c282611a86565b6004600083815260200190815260200160002060009054906101000a900473ffffffffffffffffffffffffffffffffffffffff169050919050565b600061070882610c1e565b90508073ffffffffffffffffffffffffffffffffffffffff168373ffffffffffffffffffffffffffffffffffffffff1603610778576040517f08c379a000000000000000000000000000000000000000000000000000000000815260040161076f9061348a565b60405180910390fd5b8073ffffffffffffffffffffffffffffffffffffffff16610797611ad1565b73ffffffffffffffffffffffffffffffffffffffff1614806107c657506107c5816107c0611ad1565b6116ef565b5b610805576040517f08c379a00000000000000000000000000000000000000000000000000000000081526004016107fc9061351c565b60405180910390fd5b61080f8383611ad9565b505050565b61081c612baf565b61082582611b92565b610864576040517f08c379a000000000000000000000000000000000000000000000000000000000815260040161085b90613588565b60405180910390fd5b600a60008381526020019081526020016000206040518060c0016040529081600082015481526020016001820160009054906101000a900473ffffffffffffffffffffffffffffffffffffffff1673ffffffffffffffffffffffffffffffffffffffff1673ffffffffffffffffffffffffffffffffffffffff16815260200160028201548152602001600382015481526020016004820160009054906101000a900460ff161515151581526020016004820160019054906101000a900460ff1615151515815250509050919050565b600860009054906101000a900473ffffffffffffffffffffffffffffffffffffffff1681565b61096a610964611ad1565b82611bd3565b6109a9576040517f08c379a00000000000000000000000000000000000000000000000000000000081526004016109a09061361a565b60405180910390fd5b6109b4838383611c68565b505050565b80600a600082815260200190815260200160002060040160019054906101000a900460ff1615610a1e576040517f08c379a0000000000000000000000000000000000000000000000000000000008152600401610a1590613686565b60405180910390fd5b81600a600082815260200190815260200160002060040160009054906101000a900460ff1615610a83576040517f08c379a0000000000000000000000000000000000000000000000000000000008152600401610a7a906136f2565b60405180910390fd5b610a8c83611b92565b610acb576040517f08c379a0000000000000000000000000000000000000000000000000000000008152600401610ac290613588565b60405180910390fd5b3373ffffffffffffffffffffffffffffffffffffffff16610aeb84610c1e565b73ffffffffffffffffffffffffffffffffffffffff1614610b41576040517f08c379a0000000000000000000000000000000000000000000000000000000008152600401610b389061375e565b60405180910390fd5b600a60008481526020019081526020016000206000808201600090556001820160006101000a81549073ffffffffffffffffffffffffffffffffffffffff0219169055600282016000905560038201600090556004820160006101000a81549060ff02191690556004820160016101000a81549060ff02191690555050610bc783611f61565b827f411aee90354c51b1b04cd563fcab2617142a9d50da19232d888547c8a1b7fd8a60405160405180910390a2505050565b610c14838383604051806020016040528060008152506115af565b505050565b600281565b600080610c2a836120af565b9050600073ffffffffffffffffffffffffffffffffffffffff168173ffffffffffffffffffffffffffffffffffffffff1603610c9b576040517f08c379a0000000000000000000000000000000000000000000000000000000008152600401610c92906137ca565b60405180910390fd5b80915050919050565b610cac6120ec565b80600a600082815260200190815260200160002060040160019054906101000a900460ff1615610d11576040517f08c379a0000000000000000000000000000000000000000000000000000000008152600401610d0890613686565b60405180910390fd5b81600a600082815260200190815260200160002060040160009054906101000a900460ff1615610d76576040517f08c379a0000000000000000000000000000000000000000000000000000000008152600401610d6d906136f2565b60405180910390fd5b82600a600082815260200190815260200160002060040160009054906101000a900460ff1615610e07576203f480600a600083815260200190815260200160002060030154610dc59190613819565b4211610e06576040517f08c379a0000000000000000000000000000000000000000000000000000000008152600401610dfd90613899565b60405180910390fd5b5b610e1084611b92565b610e4f576040517f08c379a0000000000000000000000000000000000000000000000000000000008152600401610e4690613588565b60405180910390fd5b6000600a600086815260200190815260200160002090506000606460028360020154610e7b91906138b9565b610e85919061392a565b90506000818360020154610e99919061395b565b9050600860009054906101000a900473ffffffffffffffffffffffffffffffffffffffff1673ffffffffffffffffffffffffffffffffffffffff166323b872dd333086600201546040518463ffffffff1660e01b8152600401610efe9392919061398f565b6020604051808303816000875af1158015610f1d573d6000803e3d6000fd5b505050506040513d601f19601f82011682018060405250810190610f4191906139db565b610f80576040517f08c379a0000000000000000000000000000000000000000000000000000000008152600401610f7790613a54565b60405180910390fd5b600860009054906101000a900473ffffffffffffffffffffffffffffffffffffffff1673ffffffffffffffffffffffffffffffffffffffff1663a9059cbb8460010160009054906101000a900473ffffffffffffffffffffffffffffffffffffffff16836040518363ffffffff1660e01b8152600401611001929190613a95565b6020604051808303816000875af1158015611020573d6000803e3d6000fd5b505050506040513d601f19601f8201168201806040525081019061104491906139db565b611083576040517f08c379a000000000000000000000000000000000000000000000000000000000815260040161107a90613b0a565b60405180910390fd5b600860009054906101000a900473ffffffffffffffffffffffffffffffffffffffff1673ffffffffffffffffffffffffffffffffffffffff1663a9059cbb6110c9611320565b846040518363ffffffff1660e01b81526004016110e7929190613b2a565b6020604051808303816000875af1158015611106573d6000803e3d6000fd5b505050506040513d601f19601f8201168201806040525081019061112a91906139db565b611169576040517f08c379a000000000000000000000000000000000000000000000000000000000815260040161116090613b9f565b60405180910390fd5b60018360040160016101000a81548160ff0219169083151502179055506111b58360010160009054906101000a900473ffffffffffffffffffffffffffffffffffffffff163389611c68565b8260000154877f89ce126afc5205d6a5156686b57ef436a8adfece97fe61771bbec0e0cf903b343386600201546040516111f0929190613b2a565b60405180910390a350505050505061120661213b565b50565b60008073ffffffffffffffffffffffffffffffffffffffff168273ffffffffffffffffffffffffffffffffffffffff1603611279576040517f08c379a000000000000000000000000000000000000000000000000000000000815260040161127090613c31565b60405180910390fd5b600360008373ffffffffffffffffffffffffffffffffffffffff1673ffffffffffffffffffffffffffffffffffffffff168152602001908152602001600020549050919050565b6112c8612145565b6112d260006121c3565b565b6112dc612145565b80600860006101000a81548173ffffffffffffffffffffffffffffffffffffffff021916908373ffffffffffffffffffffffffffffffffffffffff16021790555050565b6000600660009054906101000a900473ffffffffffffffffffffffffffffffffffffffff16905090565b606060018054611359906133e7565b80601f0160208091040260200160405190810160405280929190818152602001828054611385906133e7565b80156113d25780601f106113a7576101008083540402835291602001916113d2565b820191906000526020600020905b8154815290600101906020018083116113b557829003601f168201915b5050505050905090565b6113ee6113e7611ad1565b8383612289565b5050565b6203f48081565b6000811161143c576040517f08c379a000000000000000000000000000000000000000000000000000000000815260040161143390613c9d565b60405180910390fd5b6009600081548092919061144f90613cbd565b91905055506000600954905061146533826123f5565b6040518060c001604052808481526020013373ffffffffffffffffffffffffffffffffffffffff16815260200183815260200142815260200160001515815260200160001515815250600a60008381526020019081526020016000206000820151816000015560208201518160010160006101000a81548173ffffffffffffffffffffffffffffffffffffffff021916908373ffffffffffffffffffffffffffffffffffffffff160217905550604082015181600201556060820151816003015560808201518160040160006101000a81548160ff02191690831515021790555060a08201518160040160016101000a81548160ff02191690831515021790555090505082817fdb78b5d1ea5aa2719492918c0503657ec091d87a4dbab1a90b06ec83475e0bd8338560405161159c929190613b2a565b60405180910390a3505050565b60095481565b6115c06115ba611ad1565b83611bd3565b6115ff576040517f08c379a00000000000000000000000000000000000000000000000000000000081526004016115f69061361a565b60405180910390fd5b61160b84848484612413565b50505050565b606061161c82611a86565b600061162661246f565b905060008151116116465760405180602001604052806000815250611671565b8061165084612486565b604051602001611661929190613d41565b6040516020818303038152906040525b915050919050565b600a6020528060005260406000206000915090508060000154908060010160009054906101000a900473ffffffffffffffffffffffffffffffffffffffff16908060020154908060030154908060040160009054906101000a900460ff16908060040160019054906101000a900460ff16905086565b6000600560008473ffffffffffffffffffffffffffffffffffffffff1673ffffffffffffffffffffffffffffffffffffffff16815260200190815260200160002060008373ffffffffffffffffffffffffffffffffffffffff1673ffffffffffffffffffffffffffffffffffffffff16815260200190815260200160002060009054906101000a900460ff16905092915050565b80600a600082815260200190815260200160002060040160019054906101000a900460ff16156117e8576040517f08c379a00000000000000000000000000000000000000000000000000000000081526004016117df90613686565b60405180910390fd5b81600a600082815260200190815260200160002060040160009054906101000a900460ff161561184d576040517f08c379a0000000000000000000000000000000000000000000000000000000008152600401611844906136f2565b60405180910390fd5b82600a600082815260200190815260200160002060040160009054906101000a900460ff16156118de576203f480600a60008381526020019081526020016000206003015461189c9190613819565b42116118dd576040517f08c379a00000000000000000000000000000000000000000000000000000000081526004016118d490613899565b60405180910390fd5b5b6118e784611b92565b611926576040517f08c379a000000000000000000000000000000000000000000000000000000000815260040161191d90613588565b60405180910390fd5b6000600a6000868152602001908152602001600020905060018160040160006101000a81548160ff021916908315150217905550847f1b668d59e8a06df6a66d354d695408ffd8e21aaf34190e5d3d20403ec32ba0f83360405161198a9190612e24565b60405180910390a25050505050565b6119a1612145565b600073ffffffffffffffffffffffffffffffffffffffff168173ffffffffffffffffffffffffffffffffffffffff1603611a10576040517f08c379a0000000000000000000000000000000000000000000000000000000008152600401611a0790613dd7565b60405180910390fd5b611a19816121c3565b50565b60007f01ffc9a7000000000000000000000000000000000000000000000000000000007bffffffffffffffffffffffffffffffffffffffffffffffffffffffff1916827bffffffffffffffffffffffffffffffffffffffffffffffffffffffff1916149050919050565b611a8f81611b92565b611ace576040517f08c379a0000000000000000000000000000000000000000000000000000000008152600401611ac5906137ca565b60405180910390fd5b50565b600033905090565b816004600083815260200190815260200160002060006101000a81548173ffffffffffffffffffffffffffffffffffffffff021916908373ffffffffffffffffffffffffffffffffffffffff160217905550808273ffffffffffffffffffffffffffffffffffffffff16611b4c83610c1e565b73ffffffffffffffffffffffffffffffffffffffff167f8c5be1e5ebec7d5bd14f71427d1e84f3dd0314c0f7b2291e5b200ac8c7c3b92560405160405180910390a45050565b60008073ffffffffffffffffffffffffffffffffffffffff16611bb4836120af565b73ffffffffffffffffffffffffffffffffffffffff1614159050919050565b600080611bdf83610c1e565b90508073ffffffffffffffffffffffffffffffffffffffff168473ffffffffffffffffffffffffffffffffffffffff161480611c215750611c2081856116ef565b5b80611c5f57508373ffffffffffffffffffffffffffffffffffffffff16611c47846106b7565b73ffffffffffffffffffffffffffffffffffffffff16145b91505092915050565b8273ffffffffffffffffffffffffffffffffffffffff16611c8882610c1e565b73ffffffffffffffffffffffffffffffffffffffff1614611cde576040517f08c379a0000000000000000000000000000000000000000000000000000000008152600401611cd590613e69565b60405180910390fd5b600073ffffffffffffffffffffffffffffffffffffffff168273ffffffffffffffffffffffffffffffffffffffff1603611d4d576040517f08c379a0000000000000000000000000000000000000000000000000000000008152600401611d4490613efb565b60405180910390fd5b611d5a8383836001612554565b8273ffffffffffffffffffffffffffffffffffffffff16611d7a82610c1e565b73ffffffffffffffffffffffffffffffffffffffff1614611dd0576040517f08c379a0000000000000000000000000000000000000000000000000000000008152600401611dc790613e69565b60405180910390fd5b6004600082815260200190815260200160002060006101000a81549073ffffffffffffffffffffffffffffffffffffffff02191690556001600360008573ffffffffffffffffffffffffffffffffffffffff1673ffffffffffffffffffffffffffffffffffffffff168152602001908152602001600020600082825403925050819055506001600360008473ffffffffffffffffffffffffffffffffffffffff1673ffffffffffffffffffffffffffffffffffffffff16815260200190815260200160002060008282540192505081905550816002600083815260200190815260200160002060006101000a81548173ffffffffffffffffffffffffffffffffffffffff021916908373ffffffffffffffffffffffffffffffffffffffff160217905550808273ffffffffffffffffffffffffffffffffffffffff168473ffffffffffffffffffffffffffffffffffffffff167fddf252ad1be2c89b69c2b068fc378daa952ba7f163c4a11628f55a4df523b3ef60405160405180910390a4611f5c838383600161262e565b505050565b6000611f6c82610c1e565b9050611f7c816000846001612554565b611f8582610c1e565b90506004600083815260200190815260200160002060006101000a81549073ffffffffffffffffffffffffffffffffffffffff02191690556001600360008373ffffffffffffffffffffffffffffffffffffffff1673ffffffffffffffffffffffffffffffffffffffff168152602001908152602001600020600082825403925050819055506002600083815260200190815260200160002060006101000a81549073ffffffffffffffffffffffffffffffffffffffff021916905581600073ffffffffffffffffffffffffffffffffffffffff168273ffffffffffffffffffffffffffffffffffffffff167fddf252ad1be2c89b69c2b068fc378daa952ba7f163c4a11628f55a4df523b3ef60405160405180910390a46120ab81600084600161262e565b5050565b60006002600083815260200190815260200160002060009054906101000a900473ffffffffffffffffffffffffffffffffffffffff169050919050565b600260075403612131576040517f08c379a000000000000000000000000000000000000000000000000000000000815260040161212890613f67565b60405180910390fd5b6002600781905550565b6001600781905550565b61214d611ad1565b73ffffffffffffffffffffffffffffffffffffffff1661216b611320565b73ffffffffffffffffffffffffffffffffffffffff16146121c1576040517f08c379a00000000000000000000000000000000000000000000000000000000081526004016121b890613fd3565b60405180910390fd5b565b6000600660009054906101000a900473ffffffffffffffffffffffffffffffffffffffff16905081600660006101000a81548173ffffffffffffffffffffffffffffffffffffffff021916908373ffffffffffffffffffffffffffffffffffffffff1602179055508173ffffffffffffffffffffffffffffffffffffffff168173ffffffffffffffffffffffffffffffffffffffff167f8be0079c531659141344cd1fd0a4f28419497f9722a3daafe3b4186f6b6457e060405160405180910390a35050565b8173ffffffffffffffffffffffffffffffffffffffff168373ffffffffffffffffffffffffffffffffffffffff16036122f7576040517f08c379a00000000000000000000000000000000000000000000000000000000081526004016122ee9061403f565b60405180910390fd5b80600560008573ffffffffffffffffffffffffffffffffffffffff1673ffffffffffffffffffffffffffffffffffffffff16815260200190815260200160002060008473ffffffffffffffffffffffffffffffffffffffff1673ffffffffffffffffffffffffffffffffffffffff16815260200190815260200160002060006101000a81548160ff0219169083151502179055508173ffffffffffffffffffffffffffffffffffffffff168373ffffffffffffffffffffffffffffffffffffffff167f17307eab39ab6107e8899845ad3d59bd9653f200f220920489ca2b5937696c31836040516123e89190612cb3565b60405180910390a3505050565b61240f828260405180602001604052806000815250612634565b5050565b61241e848484611c68565b61242a8484848461268f565b612469576040517f08c379a0000000000000000000000000000000000000000000000000000000008152600401612460906140d1565b60405180910390fd5b50505050565b606060405180602001604052806000815250905090565b60606000600161249584612816565b01905060008167ffffffffffffffff8111156124b4576124b361315a565b5b6040519080825280601f01601f1916602001820160405280156124e65781602001600182028036833780820191505090505b509050600082602001820190505b600115612549578080600190039150507f3031323334353637383961626364656600000000000000000000000000000000600a86061a8153600a858161253d5761253c6138fb565b5b049450600085036124f4575b819350505050919050565b61256084848484612969565b600a600083815260200190815260200160002060040160019054906101000a900460ff16156125c4576040517f08c379a00000000000000000000000000000000000000000000000000000000081526004016125bb9061413d565b60405180910390fd5b600a600083815260200190815260200160002060040160009054906101000a900460ff1615612628576040517f08c379a000000000000000000000000000000000000000000000000000000000815260040161261f906141a9565b60405180910390fd5b50505050565b50505050565b61263e838361296f565b61264b600084848461268f565b61268a576040517f08c379a0000000000000000000000000000000000000000000000000000000008152600401612681906140d1565b60405180910390fd5b505050565b60006126b08473ffffffffffffffffffffffffffffffffffffffff16612b8c565b15612809578373ffffffffffffffffffffffffffffffffffffffff1663150b7a026126d9611ad1565b8786866040518563ffffffff1660e01b81526004016126fb949392919061421e565b6020604051808303816000875af192505050801561273757506040513d601f19601f82011682018060405250810190612734919061427f565b60015b6127b9573d8060008114612767576040519150601f19603f3d011682016040523d82523d6000602084013e61276c565b606091505b5060008151036127b1576040517f08c379a00000000000000000000000000000000000000000000000000000000081526004016127a8906140d1565b60405180910390fd5b805181602001fd5b63150b7a0260e01b7bffffffffffffffffffffffffffffffffffffffffffffffffffffffff1916817bffffffffffffffffffffffffffffffffffffffffffffffffffffffff19161491505061280e565b600190505b949350505050565b600080600090507a184f03e93ff9f4daa797ed6e38ed64bf6a1f0100000000000000008310612874577a184f03e93ff9f4daa797ed6e38ed64bf6a1f010000000000000000838161286a576128696138fb565b5b0492506040810190505b6d04ee2d6d415b85acef810000000083106128b1576d04ee2d6d415b85acef810000000083816128a7576128a66138fb565b5b0492506020810190505b662386f26fc1000083106128e057662386f26fc1000083816128d6576128d56138fb565b5b0492506010810190505b6305f5e1008310612909576305f5e10083816128ff576128fe6138fb565b5b0492506008810190505b612710831061292e576127108381612924576129236138fb565b5b0492506004810190505b606483106129515760648381612947576129466138fb565b5b0492506002810190505b600a8310612960576001810190505b80915050919050565b50505050565b600073ffffffffffffffffffffffffffffffffffffffff168273ffffffffffffffffffffffffffffffffffffffff16036129de576040517f08c379a00000000000000000000000000000000000000000000000000000000081526004016129d5906142f8565b60405180910390fd5b6129e781611b92565b15612a27576040517f08c379a0000000000000000000000000000000000000000000000000000000008152600401612a1e90614364565b60405180910390fd5b612a35600083836001612554565b612a3e81611b92565b15612a7e576040517f08c379a0000000000000000000000000000000000000000000000000000000008152600401612a7590614364565b60405180910390fd5b6001600360008473ffffffffffffffffffffffffffffffffffffffff1673ffffffffffffffffffffffffffffffffffffffff16815260200190815260200160002060008282540192505081905550816002600083815260200190815260200160002060006101000a81548173ffffffffffffffffffffffffffffffffffffffff021916908373ffffffffffffffffffffffffffffffffffffffff160217905550808273ffffffffffffffffffffffffffffffffffffffff16600073ffffffffffffffffffffffffffffffffffffffff167fddf252ad1be2c89b69c2b068fc378daa952ba7f163c4a11628f55a4df523b3ef60405160405180910390a4612b8860008383600161262e565b5050565b6000808273ffffffffffffffffffffffffffffffffffffffff163b119050919050565b6040518060c0016040528060008152602001600073ffffffffffffffffffffffffffffffffffffffff16815260200160008152602001600081526020016000151581526020016000151581525090565b6000604051905090565b600080fd5b600080fd5b60007fffffffff0000000000000000000000000000000000000000000000000000000082169050919050565b612c4881612c13565b8114612c5357600080fd5b50565b600081359050612c6581612c3f565b92915050565b600060208284031215612c8157612c80612c09565b5b6000612c8f84828501612c56565b91505092915050565b60008115159050919050565b612cad81612c98565b82525050565b6000602082019050612cc86000830184612ca4565b92915050565b600081519050919050565b600082825260208201905092915050565b60005b83811015612d08578082015181840152602081019050612ced565b60008484015250505050565b6000601f19601f8301169050919050565b6000612d3082612cce565b612d3a8185612cd9565b9350612d4a818560208601612cea565b612d5381612d14565b840191505092915050565b60006020820190508181036000830152612d788184612d25565b905092915050565b6000819050919050565b612d9381612d80565b8114612d9e57600080fd5b50565b600081359050612db081612d8a565b92915050565b600060208284031215612dcc57612dcb612c09565b5b6000612dda84828501612da1565b91505092915050565b600073ffffffffffffffffffffffffffffffffffffffff82169050919050565b6000612e0e82612de3565b9050919050565b612e1e81612e03565b82525050565b6000602082019050612e396000830184612e15565b92915050565b612e4881612e03565b8114612e5357600080fd5b50565b600081359050612e6581612e3f565b92915050565b60008060408385031215612e8257612e81612c09565b5b6000612e9085828601612e56565b9250506020612ea185828601612da1565b9150509250929050565b612eb481612d80565b82525050565b6000612ec582612de3565b9050919050565b612ed581612eba565b82525050565b612ee481612c98565b82525050565b60c082016000820151612f006000850182612eab565b506020820151612f136020850182612ecc565b506040820151612f266040850182612eab565b506060820151612f396060850182612eab565b506080820151612f4c6080850182612edb565b5060a0820151612f5f60a0850182612edb565b50505050565b600060c082019050612f7a6000830184612eea565b92915050565b6000819050919050565b6000612fa5612fa0612f9b84612de3565b612f80565b612de3565b9050919050565b6000612fb782612f8a565b9050919050565b6000612fc982612fac565b9050919050565b612fd981612fbe565b82525050565b6000602082019050612ff46000830184612fd0565b92915050565b60008060006060848603121561301357613012612c09565b5b600061302186828701612e56565b935050602061303286828701612e56565b925050604061304386828701612da1565b9150509250925092565b61305681612d80565b82525050565b6000602082019050613071600083018461304d565b92915050565b60006020828403121561308d5761308c612c09565b5b600061309b84828501612e56565b91505092915050565b6130ad81612c98565b81146130b857600080fd5b50565b6000813590506130ca816130a4565b92915050565b600080604083850312156130e7576130e6612c09565b5b60006130f585828601612e56565b9250506020613106858286016130bb565b9150509250929050565b6000806040838503121561312757613126612c09565b5b600061313585828601612da1565b925050602061314685828601612da1565b9150509250929050565b600080fd5b600080fd5b7f4e487b7100000000000000000000000000000000000000000000000000000000600052604160045260246000fd5b61319282612d14565b810181811067ffffffffffffffff821117156131b1576131b061315a565b5b80604052505050565b60006131c4612bff565b90506131d08282613189565b919050565b600067ffffffffffffffff8211156131f0576131ef61315a565b5b6131f982612d14565b9050602081019050919050565b82818337600083830152505050565b6000613228613223846131d5565b6131ba565b90508281526020810184848401111561324457613243613155565b5b61324f848285613206565b509392505050565b600082601f83011261326c5761326b613150565b5b813561327c848260208601613215565b91505092915050565b6000806000806080858703121561329f5761329e612c09565b5b60006132ad87828801612e56565b94505060206132be87828801612e56565b93505060406132cf87828801612da1565b925050606085013567ffffffffffffffff8111156132f0576132ef612c0e565b5b6132fc87828801613257565b91505092959194509250565b61331181612eba565b82525050565b600060c08201905061332c600083018961304d565b6133396020830188613308565b613346604083018761304d565b613353606083018661304d565b6133606080830185612ca4565b61336d60a0830184612ca4565b979650505050505050565b6000806040838503121561338f5761338e612c09565b5b600061339d85828601612e56565b92505060206133ae85828601612e56565b9150509250929050565b7f4e487b7100000000000000000000000000000000000000000000000000000000600052602260045260246000fd5b600060028204905060018216806133ff57607f821691505b602082108103613412576134116133b8565b5b50919050565b7f4552433732313a20617070726f76616c20746f2063757272656e74206f776e6560008201527f7200000000000000000000000000000000000000000000000000000000000000602082015250565b6000613474602183612cd9565b915061347f82613418565b604082019050919050565b600060208201905081810360008301526134a381613467565b9050919050565b7f4552433732313a20617070726f76652063616c6c6572206973206e6f7420746f60008201527f6b656e206f776e6572206f7220617070726f76656420666f7220616c6c000000602082015250565b6000613506603d83612cd9565b9150613511826134aa565b604082019050919050565b60006020820190508181036000830152613535816134f9565b9050919050565b7f4c697374696e6720646f6573206e6f7420657869737400000000000000000000600082015250565b6000613572601683612cd9565b915061357d8261353c565b602082019050919050565b600060208201905081810360008301526135a181613565565b9050919050565b7f4552433732313a2063616c6c6572206973206e6f7420746f6b656e206f776e6560008201527f72206f7220617070726f76656400000000000000000000000000000000000000602082015250565b6000613604602d83612cd9565b915061360f826135a8565b604082019050919050565b60006020820190508181036000830152613633816135f7565b9050919050565b7f50726f6475637420616c726561647920736f6c64000000000000000000000000600082015250565b6000613670601483612cd9565b915061367b8261363a565b602082019050919050565b6000602082019050818103600083015261369f81613663565b9050919050565b7f4c697374696e6720697320646973707574656400000000000000000000000000600082015250565b60006136dc601383612cd9565b91506136e7826136a6565b602082019050919050565b6000602082019050818103600083015261370b816136cf565b9050919050565b7f4f6e6c79206f776e65722063616e2063616e63656c0000000000000000000000600082015250565b6000613748601583612cd9565b915061375382613712565b602082019050919050565b600060208201905081810360008301526137778161373b565b9050919050565b7f4552433732313a20696e76616c696420746f6b656e2049440000000000000000600082015250565b60006137b4601883612cd9565b91506137bf8261377e565b602082019050919050565b600060208201905081810360008301526137e3816137a7565b9050919050565b7f4e487b7100000000000000000000000000000000000000000000000000000000600052601160045260246000fd5b600061382482612d80565b915061382f83612d80565b9250828201905080821115613847576138466137ea565b5b92915050565b7f4469737075746520706572696f64206e6f74206f766572000000000000000000600082015250565b6000613883601783612cd9565b915061388e8261384d565b602082019050919050565b600060208201905081810360008301526138b281613876565b9050919050565b60006138c482612d80565b91506138cf83612d80565b92508282026138dd81612d80565b915082820484148315176138f4576138f36137ea565b5b5092915050565b7f4e487b7100000000000000000000000000000000000000000000000000000000600052601260045260246000fd5b600061393582612d80565b915061394083612d80565b9250826139505761394f6138fb565b5b828204905092915050565b600061396682612d80565b915061397183612d80565b9250828203905081811115613989576139886137ea565b5b92915050565b60006060820190506139a46000830186612e15565b6139b16020830185612e15565b6139be604083018461304d565b949350505050565b6000815190506139d5816130a4565b92915050565b6000602082840312156139f1576139f0612c09565b5b60006139ff848285016139c6565b91505092915050565b7f5061796d656e74206661696c6564000000000000000000000000000000000000600082015250565b6000613a3e600e83612cd9565b9150613a4982613a08565b602082019050919050565b60006020820190508181036000830152613a6d81613a31565b9050919050565b6000613a7f82612fac565b9050919050565b613a8f81613a74565b82525050565b6000604082019050613aaa6000830185613a86565b613ab7602083018461304d565b9392505050565b7f5472616e7366657220746f2073656c6c6572206661696c656400000000000000600082015250565b6000613af4601983612cd9565b9150613aff82613abe565b602082019050919050565b60006020820190508181036000830152613b2381613ae7565b9050919050565b6000604082019050613b3f6000830185612e15565b613b4c602083018461304d565b9392505050565b7f506c6174666f726d20666565207472616e73666572206661696c656400000000600082015250565b6000613b89601c83612cd9565b9150613b9482613b53565b602082019050919050565b60006020820190508181036000830152613bb881613b7c565b9050919050565b7f4552433732313a2061646472657373207a65726f206973206e6f74206120766160008201527f6c6964206f776e65720000000000000000000000000000000000000000000000602082015250565b6000613c1b602983612cd9565b9150613c2682613bbf565b604082019050919050565b60006020820190508181036000830152613c4a81613c0e565b9050919050565b7f5072696365206d7573742062652067726561746572207468616e207a65726f00600082015250565b6000613c87601f83612cd9565b9150613c9282613c51565b602082019050919050565b60006020820190508181036000830152613cb681613c7a565b9050919050565b6000613cc882612d80565b91507fffffffffffffffffffffffffffffffffffffffffffffffffffffffffffffffff8203613cfa57613cf96137ea565b5b600182019050919050565b600081905092915050565b6000613d1b82612cce565b613d258185613d05565b9350613d35818560208601612cea565b80840191505092915050565b6000613d4d8285613d10565b9150613d598284613d10565b91508190509392505050565b7f4f776e61626c653a206e6577206f776e657220697320746865207a65726f206160008201527f6464726573730000000000000000000000000000000000000000000000000000602082015250565b6000613dc1602683612cd9565b9150613dcc82613d65565b604082019050919050565b60006020820190508181036000830152613df081613db4565b9050919050565b7f4552433732313a207472616e736665722066726f6d20696e636f72726563742060008201527f6f776e6572000000000000000000000000000000000000000000000000000000602082015250565b6000613e53602583612cd9565b9150613e5e82613df7565b604082019050919050565b60006020820190508181036000830152613e8281613e46565b9050919050565b7f4552433732313a207472616e7366657220746f20746865207a65726f2061646460008201527f7265737300000000000000000000000000000000000000000000000000000000602082015250565b6000613ee5602483612cd9565b9150613ef082613e89565b604082019050919050565b60006020820190508181036000830152613f1481613ed8565b9050919050565b7f5265656e7472616e637947756172643a207265656e7472616e742063616c6c00600082015250565b6000613f51601f83612cd9565b9150613f5c82613f1b565b602082019050919050565b60006020820190508181036000830152613f8081613f44565b9050919050565b7f4f776e61626c653a2063616c6c6572206973206e6f7420746865206f776e6572600082015250565b6000613fbd602083612cd9565b9150613fc882613f87565b602082019050919050565b60006020820190508181036000830152613fec81613fb0565b9050919050565b7f4552433732313a20617070726f766520746f2063616c6c657200000000000000600082015250565b6000614029601983612cd9565b915061403482613ff3565b602082019050919050565b600060208201905081810360008301526140588161401c565b9050919050565b7f4552433732313a207472616e7366657220746f206e6f6e20455243373231526560008201527f63656976657220696d706c656d656e7465720000000000000000000000000000602082015250565b60006140bb603283612cd9565b91506140c68261405f565b604082019050919050565b600060208201905081810360008301526140ea816140ae565b9050919050565b7f43616e6e6f74207472616e7366657220736f6c64206c697374696e6700000000600082015250565b6000614127601c83612cd9565b9150614132826140f1565b602082019050919050565b600060208201905081810360008301526141568161411a565b9050919050565b7f43616e6e6f74207472616e73666572206469737075746564206c697374696e67600082015250565b6000614193602083612cd9565b915061419e8261415d565b602082019050919050565b600060208201905081810360008301526141c281614186565b9050919050565b600081519050919050565b600082825260208201905092915050565b60006141f0826141c9565b6141fa81856141d4565b935061420a818560208601612cea565b61421381612d14565b840191505092915050565b60006080820190506142336000830187612e15565b6142406020830186612e15565b61424d604083018561304d565b818103606083015261425f81846141e5565b905095945050505050565b60008151905061427981612c3f565b92915050565b60006020828403121561429557614294612c09565b5b60006142a38482850161426a565b91505092915050565b7f4552433732313a206d696e7420746f20746865207a65726f2061646472657373600082015250565b60006142e2602083612cd9565b91506142ed826142ac565b602082019050919050565b60006020820190508181036000830152614311816142d5565b9050919050565b7f4552433732313a20746f6b656e20616c7265616479206d696e74656400000000600082015250565b600061434e601c83612cd9565b915061435982614318565b602082019050919050565b6000602082019050818103600083015261437d81614341565b905091905056fea2646970667358221220b91d7b5f98691eae05f9d925d88c90ca309e24cb834ae5cb3baeb520f4ca755c64736f6c63430008130033",
  "linkReferences": {},
  "deployedLinkReferences": {}
}