{
  "_format": "hh-sol-artifact-1",
  "contractName": "ReluxMarketplace",
  "sourceName": "contracts/ReluxMarketplace.sol",
  "abi": [
    {
      "inputs": [
        {
          "internalType": "address",
          "name": "_usdcToken",
          "type": "address"
        }
      ],
      "stateMutability": "nonpayable",
      "type": "constructor"
    },
    {
      "anonymous": false,
      "inputs": [
        {
          "indexed": true,
          "internalType": "address",
          "name": "owner",
          "type": "address"
        },
        {
          "indexed": true,
          "internalType": "address",
          "name": "approved",
          "type": "address"
        },
        {
          "indexed": true,
          "internalType": "uint256",
          "name": "tokenId",
          "type": "uint256"
        }
      ],
      "name": "Approval",
      "type": "event"
    },
    {
      "anonymous": false,
      "inputs": [
        {
          "indexed": true,
          "internalType": "address",
          "name": "owner",
          "type": "address"
        },
        {
          "indexed": true,
          "internalType": "address",
          "name": "operator",
          "type": "address"
        },
        {
          "indexed": false,
          "internalType": "bool",
          "name": "approved",
          "type": "bool"
        }
      ],
      "name": "ApprovalForAll",
      "type": "event"
    },
    {
      "anonymous": false,
      "inputs": [
        {
          "indexed": true,
          "internalType": "uint256",
          "name": "tokenId",
          "type": "uint256"
        }
      ],
      "name": "ListingCancelled",
      "type": "event"
    },
    {
      "anonymous": false,
      "inputs": [
        {
          "indexed": true,
          "internalType": "uint256",
          "name": "tokenId",
          "type": "uint256"
        },
        {
          "indexed": false,
          "internalType": "address",
          "name": "disputer",
          "type": "address"
        }
      ],
      "name": "ListingDisputed",
      "type": "event"
    },
    {
      "anonymous": false,
      "inputs": [
        {
          "indexed": true,
          "internalType": "address",
          "name": "previousOwner",
          "type": "address"
        },
        {
          "indexed": true,
          "internalType": "address",
          "name": "newOwner",
          "type": "address"
        }
      ],
      "name": "OwnershipTransferred",
      "type": "event"
    },
    {
      "anonymous": false,
      "inputs": [
        {
          "indexed": true,
          "internalType": "address",
          "name": "from",
          "type": "address"
        },
        {
          "indexed": true,
          "internalType": "address",
          "name": "to",
          "type": "address"
        },
        {
          "indexed": true,
          "internalType": "uint256",
          "name": "tokenId",
          "type": "uint256"
        }
      ],
      "name": "Transfer",
      "type": "event"
    },
    {
      "anonymous": false,
      "inputs": [
        {
          "indexed": true,
          "internalType": "uint256",
          "name": "tokenId",
          "type": "uint256"
        },
        {
          "indexed": true,
          "internalType": "uint256",
          "name": "watchId",
          "type": "uint256"
        },
        {
          "indexed": false,
          "internalType": "address",
          "name": "seller",
          "type": "address"
        },
        {
          "indexed": false,
          "internalType": "uint256",
          "name": "price",
          "type": "uint256"
        }
      ],
      "name": "WatchListed",
      "type": "event"
    },
    {
      "anonymous": false,
      "inputs": [
        {
          "indexed": true,
          "internalType": "uint256",
          "name": "tokenId",
          "type": "uint256"
        },
        {
          "indexed": true,
          "internalType": "uint256",
          "name": "watchId",
          "type": "uint256"
        },
        {
          "indexed": false,
          "internalType": "address",
          "name": "buyer",
          "type": "address"
        },
        {
          "indexed": false,
          "internalType": "uint256",
          "name": "price",
          "type": "uint256"
        }
      ],
      "name": "WatchSold",
      "type": "event"
    },
    {
      "inputs": [],
      "name": "DISPUTE_PERIOD",
      "outputs": [
        {
          "internalType": "uint256",
          "name": "",
          "type": "uint256"
        }
      ],
      "stateMutability": "view",
      "type": "function"
    },
    {
      "inputs": [],
      "name": "PLATFORM_FEE_PERCENT",
      "outputs": [
        {
          "internalType": "uint256",
          "name": "",
          "type": "uint256"
        }
      ],
      "stateMutability": "view",
      "type": "function"
    },
    {
      "inputs": [
        {
          "internalType": "address",
          "name": "to",
          "type": "address"
        },
        {
          "internalType": "uint256",
          "name": "tokenId",
          "type": "uint256"
        }
      ],
      "name": "approve",
      "outputs": [],
      "stateMutability": "nonpayable",
      "type": "function"
    },
    {
      "inputs": [
        {
          "internalType": "address",
          "name": "owner",
          "type": "address"
        }
      ],
      "name": "balanceOf",
      "outputs": [
        {
          "internalType": "uint256",
          "name": "",
          "type": "uint256"
        }
      ],
      "stateMutability": "view",
      "type": "function"
    },
    {
      "inputs": [
        {
          "internalType": "uint256",
          "name": "tokenId",
          "type": "uint256"
        }
      ],
      "name": "buyWatch",
      "outputs": [],
      "stateMutability": "nonpayable",
      "type": "function"
    },
    {
      "inputs": [
        {
          "internalType": "uint256",
          "name": "tokenId",
          "type": "uint256"
        }
      ],
      "name": "cancelListing",
      "outputs": [],
      "stateMutability": "nonpayable",
      "type": "function"
    },
    {
      "inputs": [
        {
          "internalType": "uint256",
          "name": "watchId",
          "type": "uint256"
        },
        {
          "internalType": "uint256",
          "name": "price",
          "type": "uint256"
        }
      ],
      "name": "createListing",
      "outputs": [],
      "stateMutability": "nonpayable",
      "type": "function"
    },
    {
      "inputs": [
        {
          "internalType": "uint256",
          "name": "tokenId",
          "type": "uint256"
        }
      ],
      "name": "disputeListing",
      "outputs": [],
      "stateMutability": "nonpayable",
      "type": "function"
    },
    {
      "inputs": [
        {
          "internalType": "uint256",
          "name": "tokenId",
          "type": "uint256"
        }
      ],
      "name": "getApproved",
      "outputs": [
        {
          "internalType": "address",
          "name": "",
          "type": "address"
        }
      ],
      "stateMutability": "view",
      "type": "function"
    },
    {
      "inputs": [
        {
          "internalType": "uint256",
          "name": "tokenId",
          "type": "uint256"
        }
      ],
      "name": "getListing",
      "outputs": [
        {
          "components": [
            {
              "internalType": "uint256",
              "name": "watchId",
              "type": "uint256"
            },
            {
              "internalType": "address payable",
              "name": "seller",
              "type": "address"
            },
            {
              "internalType": "uint256",
              "name": "price",
              "type": "uint256"
            },
            {
              "internalType": "uint256",
              "name": "listingTime",
              "type": "uint256"
            },
            {
              "internalType": "bool",
              "name": "isDisputed",
              "type": "bool"
            },
            {
              "internalType": "bool",
              "name": "isSold",
              "type": "bool"
            }
          ],
          "internalType": "struct ReluxMarketplace.Listing",
          "name": "",
          "type": "tuple"
        }
      ],
      "stateMutability": "view",
      "type": "function"
    },
    {
      "inputs": [
        {
          "internalType": "address",
          "name": "owner",
          "type": "address"
        },
        {
          "internalType": "address",
          "name": "operator",
          "type": "address"
        }
      ],
      "name": "isApprovedForAll",
      "outputs": [
        {
          "internalType": "bool",
          "name": "",
          "type": "bool"
        }
      ],
      "stateMutability": "view",
      "type": "function"
    },
    {
      "inputs": [
        {
          "internalType": "uint256",
          "name": "",
          "type": "uint256"
        }
      ],
      "name": "listings",
      "outputs": [
        {
          "internalType": "uint256",
          "name": "watchId",
          "type": "uint256"
        },
        {
          "internalType": "address payable",
          "name": "seller",
          "type": "address"
        },
        {
          "internalType": "uint256",
          "name": "price",
          "type": "uint256"
        },
        {
          "internalType": "uint256",
          "name": "listingTime",
          "type": "uint256"
        },
        {
          "internalType": "bool",
          "name": "isDisputed",
          "type": "bool"
        },
        {
          "internalType": "bool",
          "name": "isSold",
          "type": "bool"
        }
      ],
      "stateMutability": "view",
      "type": "function"
    },
    {
      "inputs": [],
      "name": "name",
      "outputs": [
        {
          "internalType": "string",
          "name": "",
          "type": "string"
        }
      ],
      "stateMutability": "view",
      "type": "function"
    },
    {
      "inputs": [],
      "name": "owner",
      "outputs": [
        {
          "internalType": "address",
          "name": "",
          "type": "address"
        }
      ],
      "stateMutability": "view",
      "type": "function"
    },
    {
      "inputs": [
        {
          "internalType": "uint256",
          "name": "tokenId",
          "type": "uint256"
        }
      ],
      "name": "ownerOf",
      "outputs": [
        {
          "internalType": "address",
          "name": "",
          "type": "address"
        }
      ],
      "stateMutability": "view",
      "type": "function"
    },
    {
      "inputs": [],
      "name": "renounceOwnership",
      "outputs": [],
      "stateMutability": "nonpayable",
      "type": "function"
    },
    {
      "inputs": [
        {
          "internalType": "address",
          "name": "from",
          "type": "address"
        },
        {
          "internalType": "address",
          "name": "to",
          "type": "address"
        },
        {
          "internalType": "uint256",
          "name": "tokenId",
          "type": "uint256"
        }
      ],
      "name": "safeTransferFrom",
      "outputs": [],
      "stateMutability": "nonpayable",
      "type": "function"
    },
    {
      "inputs": [
        {
          "internalType": "address",
          "name": "from",
          "type": "address"
        },
        {
          "internalType": "address",
          "name": "to",
          "type": "address"
        },
        {
          "internalType": "uint256",
          "name": "tokenId",
          "type": "uint256"
        },
        {
          "internalType": "bytes",
          "name": "data",
          "type": "bytes"
        }
      ],
      "name": "safeTransferFrom",
      "outputs": [],
      "stateMutability": "nonpayable",
      "type": "function"
    },
    {
      "inputs": [
        {
          "internalType": "address",
          "name": "operator",
          "type": "address"
        },
        {
          "internalType": "bool",
          "name": "approved",
          "type": "bool"
        }
      ],
      "name": "setApprovalForAll",
      "outputs": [],
      "stateMutability": "nonpayable",
      "type": "function"
    },
    {
      "inputs": [
        {
          "internalType": "bytes4",
          "name": "interfaceId",
          "type": "bytes4"
        }
      ],
      "name": "supportsInterface",
      "outputs": [
        {
          "internalType": "bool",
          "name": "",
          "type": "bool"
        }
      ],
      "stateMutability": "view",
      "type": "function"
    },
    {
      "inputs": [],
      "name": "symbol",
      "outputs": [
        {
          "internalType": "string",
          "name": "",
          "type": "string"
        }
      ],
      "stateMutability": "view",
      "type": "function"
    },
    {
      "inputs": [
        {
          "internalType": "uint256",
          "name": "tokenId",
          "type": "uint256"
        }
      ],
      "name": "tokenURI",
      "outputs": [
        {
          "internalType": "string",
          "name": "",
          "type": "string"
        }
      ],
      "stateMutability": "view",
      "type": "function"
    },
    {
      "inputs": [
        {
          "internalType": "address",
          "name": "from",
          "type": "address"
        },
        {
          "internalType": "address",
          "name": "to",
          "type": "address"
        },
        {
          "internalType": "uint256",
          "name": "tokenId",
          "type": "uint256"
        }
      ],
      "name": "transferFrom",
      "outputs": [],
      "stateMutability": "nonpayable",
      "type": "function"
    },
    {
      "inputs": [
        {
          "internalType": "address",
          "name": "newOwner",
          "type": "address"
        }
      ],
      "name": "transferOwnership",
      "outputs": [],
      "stateMutability": "nonpayable",
      "type": "function"
    },
    {
      "inputs": [
        {
          "internalType": "address",
          "name": "newUSDCToken",
          "type": "address"
        }
      ],
      "name": "updateUSDCToken",
      "outputs": [],
      "stateMutability": "nonpayable",
      "type": "function"
    },
    {
      "inputs": [],
      "name": "usdcToken",
      "outputs": [
        {
          "internalType": "contract IERC20",
          "name": "",
          "type": "address"
        }
      ],
      "stateMutability": "view",
      "type": "function"
    }
  ],
  "bytecode": "0x60806040523480156200001157600080fd5b506040516200496438038062004964833981810160405281019062000037919062000271565b6040518060400160405280601181526020017f52656c757857617463684c697374696e670000000000000000000000000000008152506040518060400160405280600381526020017f52574c00000000000000000000000000000000000000000000000000000000008152508160009081620000b491906200051d565b508060019081620000c691906200051d565b505050620000e9620000dd6200013960201b60201c565b6200014160201b60201c565b600160078190555080600860006101000a81548173ffffffffffffffffffffffffffffffffffffffff021916908373ffffffffffffffffffffffffffffffffffffffff1602179055505062000604565b600033905090565b6000600660009054906101000a900473ffffffffffffffffffffffffffffffffffffffff16905081600660006101000a81548173ffffffffffffffffffffffffffffffffffffffff021916908373ffffffffffffffffffffffffffffffffffffffff1602179055508173ffffffffffffffffffffffffffffffffffffffff168173ffffffffffffffffffffffffffffffffffffffff167f8be0079c531659141344cd1fd0a4f28419497f9722a3daafe3b4186f6b6457e060405160405180910390a35050565b600080fd5b600073ffffffffffffffffffffffffffffffffffffffff82169050919050565b600062000239826200020c565b9050919050565b6200024b816200022c565b81146200025757600080fd5b50565b6000815190506200026b8162000240565b92915050565b6000602082840312156200028a576200028962000207565b5b60006200029a848285016200025a565b91505092915050565b600081519050919050565b7f4e487b7100000000000000000000000000000000000000000000000000000000600052604160045260246000fd5b7f4e487b7100000000000000000000000000000000000000000000000000000000600052602260045260246000fd5b600060028204905060018216806200032557607f821691505b6020821081036200033b576200033a620002dd565b5b50919050565b60008190508160005260206000209050919050565b60006020601f8301049050919050565b600082821b905092915050565b600060088302620003a57fffffffffffffffffffffffffffffffffffffffffffffffffffffffffffffffff8262000366565b620003b1868362000366565b95508019841693508086168417925050509392505050565b6000819050919050565b6000819050919050565b6000620003fe620003f8620003f284620003c9565b620003d3565b620003c9565b9050919050565b6000819050919050565b6200041a83620003dd565b62000432620004298262000405565b84845462000373565b825550505050565b600090565b620004496200043a565b620004568184846200040f565b505050565b5b818110156200047e57620004726000826200043f565b6001810190506200045c565b5050565b601f821115620004cd57620004978162000341565b620004a28462000356565b81016020851015620004b2578190505b620004ca620004c18562000356565b8301826200045b565b50505b505050565b600082821c905092915050565b6000620004f260001984600802620004d2565b1980831691505092915050565b60006200050d8383620004df565b9150826002028217905092915050565b6200052882620002a3565b67ffffffffffffffff811115620005445762000543620002ae565b5b6200055082546200030c565b6200055d82828562000482565b600060209050601f83116001811462000595576000841562000580578287015190505b6200058c8582620004ff565b865550620005fc565b601f198416620005a58662000341565b60005b82811015620005cf57848901518255600182019150602085019450602081019050620005a8565b86831015620005ef5784890151620005eb601f891682620004df565b8355505b6001600288020188555050505b505050505050565b61435080620006146000396000f3fe608060405234801561001057600080fd5b506004361061018e5760003560e01c8063715018a6116100de578063a79123a911610097578063de74e57b11610071578063de74e57b1461046d578063e985e9c5146104a2578063ebef75e5146104d2578063f2fde38b146104ee5761018e565b8063a79123a914610405578063b88d4fde14610421578063c87b56dd1461043d5761018e565b8063715018a614610369578063805351a4146103735780638da5cb5b1461038f57806395d89b41146103ad578063a22cb465146103cb578063a5bbe22b146103e75761018e565b806323b872dd1161014b578063560d52d411610125578063560d52d4146102cf5780636352211e146102ed5780636a3fd1771461031d57806370a08231146103395761018e565b806323b872dd1461027b578063305a67a81461029757806342842e0e146102b35761018e565b806301ffc9a71461019357806306fdde03146101c3578063081812fc146101e1578063095ea7b314610211578063107a274a1461022d57806311eac8551461025d575b600080fd5b6101ad60048036038101906101a89190612c49565b61050a565b6040516101ba9190612c91565b60405180910390f35b6101cb6105ec565b6040516101d89190612d3c565b60405180910390f35b6101fb60048036038101906101f69190612d94565b61067e565b6040516102089190612e02565b60405180910390f35b61022b60048036038101906102269190612e49565b6106c4565b005b61024760048036038101906102429190612d94565b6107db565b6040516102549190612f43565b60405180910390f35b6102656108fa565b6040516102729190612fbd565b60405180910390f35b61029560048036038101906102909190612fd8565b610920565b005b6102b160048036038101906102ac9190612d94565b610980565b005b6102cd60048036038101906102c89190612fd8565b610bc0565b005b6102d7610be0565b6040516102e4919061303a565b60405180910390f35b61030760048036038101906103029190612d94565b610be5565b6040516103149190612e02565b60405180910390f35b61033760048036038101906103329190612d94565b610c6b565b005b610353600480360381019061034e9190613055565b6111d0565b604051610360919061303a565b60405180910390f35b610371611287565b005b61038d60048036038101906103889190613055565b61129b565b005b6103976112e7565b6040516103a49190612e02565b60405180910390f35b6103b5611311565b6040516103c29190612d3c565b60405180910390f35b6103e560048036038101906103e091906130ae565b6113a3565b005b6103ef6113b9565b6040516103fc919061303a565b60405180910390f35b61041f600480360381019061041a91906130ee565b6113c0565b005b61043b60048036038101906104369190613263565b611569565b005b61045760048036038101906104529190612d94565b6115cb565b6040516104649190612d3c565b60405180910390f35b61048760048036038101906104829190612d94565b611633565b604051610499969594939291906132f5565b60405180910390f35b6104bc60048036038101906104b79190613356565b6116a9565b6040516104c99190612c91565b60405180910390f35b6104ec60048036038101906104e79190612d94565b61173d565b005b61050860048036038101906105039190613055565b611953565b005b60007f80ac58cd000000000000000000000000000000000000000000000000000000007bffffffffffffffffffffffffffffffffffffffffffffffffffffffff1916827bffffffffffffffffffffffffffffffffffffffffffffffffffffffff191614806105d557507f5b5e139f000000000000000000000000000000000000000000000000000000007bffffffffffffffffffffffffffffffffffffffffffffffffffffffff1916827bffffffffffffffffffffffffffffffffffffffffffffffffffffffff1916145b806105e557506105e4826119d6565b5b9050919050565b6060600080546105fb906133c5565b80601f0160208091040260200160405190810160405280929190818152602001828054610627906133c5565b80156106745780601f1061064957610100808354040283529160200191610674565b820191906000526020600020905b81548152906001019060200180831161065757829003601f168201915b5050505050905090565b600061068982611a40565b6004600083815260200190815260200160002060009054906101000a900473ffffffffffffffffffffffffffffffffffffffff169050919050565b60006106cf82610be5565b90508073ffffffffffffffffffffffffffffffffffffffff168373ffffffffffffffffffffffffffffffffffffffff160361073f576040517f08c379a000000000000000000000000000000000000000000000000000000000815260040161073690613468565b60405180910390fd5b8073ffffffffffffffffffffffffffffffffffffffff1661075e611a8b565b73ffffffffffffffffffffffffffffffffffffffff16148061078d575061078c81610787611a8b565b6116a9565b5b6107cc576040517f08c379a00000000000000000000000000000000000000000000000000000000081526004016107c3906134fa565b60405180910390fd5b6107d68383611a93565b505050565b6107e3612b8d565b6107ec82611b4c565b61082b576040517f08c379a000000000000000000000000000000000000000000000000000000000815260040161082290613566565b60405180910390fd5b600a60008381526020019081526020016000206040518060c0016040529081600082015481526020016001820160009054906101000a900473ffffffffffffffffffffffffffffffffffffffff1673ffffffffffffffffffffffffffffffffffffffff1673ffffffffffffffffffffffffffffffffffffffff16815260200160028201548152602001600382015481526020016004820160009054906101000a900460ff161515151581526020016004820160019054906101000a900460ff1615151515815250509050919050565b600860009054906101000a900473ffffffffffffffffffffffffffffffffffffffff1681565b61093161092b611a8b565b82611b8d565b610970576040517f08c379a0000000000000000000000000000000000000000000000000000000008152600401610967906135f8565b60405180910390fd5b61097b838383611c22565b505050565b80600a600082815260200190815260200160002060040160019054906101000a900460ff16156109e5576040517f08c379a00000000000000000000000000000000000000000000000000000000081526004016109dc90613664565b60405180910390fd5b81600a600082815260200190815260200160002060040160009054906101000a900460ff1615610a4a576040517f08c379a0000000000000000000000000000000000000000000000000000000008152600401610a41906136d0565b60405180910390fd5b610a5383611b4c565b610a92576040517f08c379a0000000000000000000000000000000000000000000000000000000008152600401610a8990613566565b60405180910390fd5b3373ffffffffffffffffffffffffffffffffffffffff16610ab284610be5565b73ffffffffffffffffffffffffffffffffffffffff1614610b08576040517f08c379a0000000000000000000000000000000000000000000000000000000008152600401610aff9061373c565b60405180910390fd5b600a60008481526020019081526020016000206000808201600090556001820160006101000a81549073ffffffffffffffffffffffffffffffffffffffff0219169055600282016000905560038201600090556004820160006101000a81549060ff02191690556004820160016101000a81549060ff02191690555050610b8e83611f1b565b827f411aee90354c51b1b04cd563fcab2617142a9d50da19232d888547c8a1b7fd8a60405160405180910390a2505050565b610bdb83838360405180602001604052806000815250611569565b505050565b600281565b600080610bf183612069565b9050600073ffffffffffffffffffffffffffffffffffffffff168173ffffffffffffffffffffffffffffffffffffffff1603610c62576040517f08c379a0000000000000000000000000000000000000000000000000000000008152600401610c59906137a8565b60405180910390fd5b80915050919050565b610c736120a6565b80600a600082815260200190815260200160002060040160019054906101000a900460ff1615610cd8576040517f08c379a0000000000000000000000000000000000000000000000000000000008152600401610ccf90613664565b60405180910390fd5b81600a600082815260200190815260200160002060040160009054906101000a900460ff1615610d3d576040517f08c379a0000000000000000000000000000000000000000000000000000000008152600401610d34906136d0565b60405180910390fd5b82600a600082815260200190815260200160002060040160009054906101000a900460ff1615610dce576203f480600a600083815260200190815260200160002060030154610d8c91906137f7565b4211610dcd576040517f08c379a0000000000000000000000000000000000000000000000000000000008152600401610dc490613877565b60405180910390fd5b5b610dd784611b4c565b610e16576040517f08c379a0000000000000000000000000000000000000000000000000000000008152600401610e0d90613566565b60405180910390fd5b6000600a600086815260200190815260200160002090506000606460028360020154610e429190613897565b610e4c9190613908565b90506000818360020154610e609190613939565b9050600860009054906101000a900473ffffffffffffffffffffffffffffffffffffffff1673ffffffffffffffffffffffffffffffffffffffff166323b872dd333086600201546040518463ffffffff1660e01b8152600401610ec59392919061396d565b6020604051808303816000875af1158015610ee4573d6000803e3d6000fd5b505050506040513d601f19601f82011682018060405250810190610f0891906139b9565b610f47576040517f08c379a0000000000000000000000000000000000000000000000000000000008152600401610f3e90613a32565b60405180910390fd5b600860009054906101000a900473ffffffffffffffffffffffffffffffffffffffff1673ffffffffffffffffffffffffffffffffffffffff1663a9059cbb8460010160009054906101000a900473ffffffffffffffffffffffffffffffffffffffff16836040518363ffffffff1660e01b8152600401610fc8929190613a73565b6020604051808303816000875af1158015610fe7573d6000803e3d6000fd5b505050506040513d601f19601f8201168201806040525081019061100b91906139b9565b61104a576040517f08c379a000000000000000000000000000000000000000000000000000000000815260040161104190613ae8565b60405180910390fd5b600860009054906101000a900473ffffffffffffffffffffffffffffffffffffffff1673ffffffffffffffffffffffffffffffffffffffff1663a9059cbb6110906112e7565b846040518363ffffffff1660e01b81526004016110ae929190613b08565b6020604051808303816000875af11580156110cd573d6000803e3d6000fd5b505050506040513d601f19601f820116820180604052508101906110f191906139b9565b611130576040517f08c379a000000000000000000000000000000000000000000000000000000000815260040161112790613b7d565b60405180910390fd5b60018360040160016101000a81548160ff02191690831515021790555061117c8360010160009054906101000a900473ffffffffffffffffffffffffffffffffffffffff163389611c22565b8260000154877f89ce126afc5205d6a5156686b57ef436a8adfece97fe61771bbec0e0cf903b343386600201546040516111b7929190613b08565b60405180910390a35050505050506111cd6120f5565b50565b60008073ffffffffffffffffffffffffffffffffffffffff168273ffffffffffffffffffffffffffffffffffffffff1603611240576040517f08c379a000000000000000000000000000000000000000000000000000000000815260040161123790613c0f565b60405180910390fd5b600360008373ffffffffffffffffffffffffffffffffffffffff1673ffffffffffffffffffffffffffffffffffffffff168152602001908152602001600020549050919050565b61128f6120ff565b611299600061217d565b565b6112a36120ff565b80600860006101000a81548173ffffffffffffffffffffffffffffffffffffffff021916908373ffffffffffffffffffffffffffffffffffffffff16021790555050565b6000600660009054906101000a900473ffffffffffffffffffffffffffffffffffffffff16905090565b606060018054611320906133c5565b80601f016020809104026020016040519081016040528092919081815260200182805461134c906133c5565b80156113995780601f1061136e57610100808354040283529160200191611399565b820191906000526020600020905b81548152906001019060200180831161137c57829003601f168201915b5050505050905090565b6113b56113ae611a8b565b8383612243565b5050565b6203f48081565b60008111611403576040517f08c379a00000000000000000000000000000000000000000000000000000000081526004016113fa90613c7b565b60405180910390fd5b61140d60096123af565b600061141960096123c5565b905061142533826123d3565b6040518060c001604052808481526020013373ffffffffffffffffffffffffffffffffffffffff16815260200183815260200142815260200160001515815260200160001515815250600a60008381526020019081526020016000206000820151816000015560208201518160010160006101000a81548173ffffffffffffffffffffffffffffffffffffffff021916908373ffffffffffffffffffffffffffffffffffffffff160217905550604082015181600201556060820151816003015560808201518160040160006101000a81548160ff02191690831515021790555060a08201518160040160016101000a81548160ff02191690831515021790555090505082817fdb78b5d1ea5aa2719492918c0503657ec091d87a4dbab1a90b06ec83475e0bd8338560405161155c929190613b08565b60405180910390a3505050565b61157a611574611a8b565b83611b8d565b6115b9576040517f08c379a00000000000000000000000000000000000000000000000000000000081526004016115b0906135f8565b60405180910390fd5b6115c5848484846123f1565b50505050565b60606115d682611a40565b60006115e061244d565b90506000815111611600576040518060200160405280600081525061162b565b8061160a84612464565b60405160200161161b929190613cd7565b6040516020818303038152906040525b915050919050565b600a6020528060005260406000206000915090508060000154908060010160009054906101000a900473ffffffffffffffffffffffffffffffffffffffff16908060020154908060030154908060040160009054906101000a900460ff16908060040160019054906101000a900460ff16905086565b6000600560008473ffffffffffffffffffffffffffffffffffffffff1673ffffffffffffffffffffffffffffffffffffffff16815260200190815260200160002060008373ffffffffffffffffffffffffffffffffffffffff1673ffffffffffffffffffffffffffffffffffffffff16815260200190815260200160002060009054906101000a900460ff16905092915050565b80600a600082815260200190815260200160002060040160019054906101000a900460ff16156117a2576040517f08c379a000000000000000000000000000000000000000000000000000000000815260040161179990613664565b60405180910390fd5b81600a600082815260200190815260200160002060040160009054906101000a900460ff1615611807576040517f08c379a00000000000000000000000000000000000000000000000000000000081526004016117fe906136d0565b60405180910390fd5b82600a600082815260200190815260200160002060040160009054906101000a900460ff1615611898576203f480600a60008381526020019081526020016000206003015461185691906137f7565b4211611897576040517f08c379a000000000000000000000000000000000000000000000000000000000815260040161188e90613877565b60405180910390fd5b5b6118a184611b4c565b6118e0576040517f08c379a00000000000000000000000000000000000000000000000000000000081526004016118d790613566565b60405180910390fd5b6000600a6000868152602001908152602001600020905060018160040160006101000a81548160ff021916908315150217905550847f1b668d59e8a06df6a66d354d695408ffd8e21aaf34190e5d3d20403ec32ba0f8336040516119449190612e02565b60405180910390a25050505050565b61195b6120ff565b600073ffffffffffffffffffffffffffffffffffffffff168173ffffffffffffffffffffffffffffffffffffffff16036119ca576040517f08c379a00000000000000000000000000000000000000000000000000000000081526004016119c190613d6d565b60405180910390fd5b6119d38161217d565b50565b60007f01ffc9a7000000000000000000000000000000000000000000000000000000007bffffffffffffffffffffffffffffffffffffffffffffffffffffffff1916827bffffffffffffffffffffffffffffffffffffffffffffffffffffffff1916149050919050565b611a4981611b4c565b611a88576040517f08c379a0000000000000000000000000000000000000000000000000000000008152600401611a7f906137a8565b60405180910390fd5b50565b600033905090565b816004600083815260200190815260200160002060006101000a81548173ffffffffffffffffffffffffffffffffffffffff021916908373ffffffffffffffffffffffffffffffffffffffff160217905550808273ffffffffffffffffffffffffffffffffffffffff16611b0683610be5565b73ffffffffffffffffffffffffffffffffffffffff167f8c5be1e5ebec7d5bd14f71427d1e84f3dd0314c0f7b2291e5b200ac8c7c3b92560405160405180910390a45050565b60008073ffffffffffffffffffffffffffffffffffffffff16611b6e83612069565b73ffffffffffffffffffffffffffffffffffffffff1614159050919050565b600080611b9983610be5565b90508073ffffffffffffffffffffffffffffffffffffffff168473ffffffffffffffffffffffffffffffffffffffff161480611bdb5750611bda81856116a9565b5b80611c1957508373ffffffffffffffffffffffffffffffffffffffff16611c018461067e565b73ffffffffffffffffffffffffffffffffffffffff16145b91505092915050565b8273ffffffffffffffffffffffffffffffffffffffff16611c4282610be5565b73ffffffffffffffffffffffffffffffffffffffff1614611c98576040517f08c379a0000000000000000000000000000000000000000000000000000000008152600401611c8f90613dff565b60405180910390fd5b600073ffffffffffffffffffffffffffffffffffffffff168273ffffffffffffffffffffffffffffffffffffffff1603611d07576040517f08c379a0000000000000000000000000000000000000000000000000000000008152600401611cfe90613e91565b60405180910390fd5b611d148383836001612532565b8273ffffffffffffffffffffffffffffffffffffffff16611d3482610be5565b73ffffffffffffffffffffffffffffffffffffffff1614611d8a576040517f08c379a0000000000000000000000000000000000000000000000000000000008152600401611d8190613dff565b60405180910390fd5b6004600082815260200190815260200160002060006101000a81549073ffffffffffffffffffffffffffffffffffffffff02191690556001600360008573ffffffffffffffffffffffffffffffffffffffff1673ffffffffffffffffffffffffffffffffffffffff168152602001908152602001600020600082825403925050819055506001600360008473ffffffffffffffffffffffffffffffffffffffff1673ffffffffffffffffffffffffffffffffffffffff16815260200190815260200160002060008282540192505081905550816002600083815260200190815260200160002060006101000a81548173ffffffffffffffffffffffffffffffffffffffff021916908373ffffffffffffffffffffffffffffffffffffffff160217905550808273ffffffffffffffffffffffffffffffffffffffff168473ffffffffffffffffffffffffffffffffffffffff167fddf252ad1be2c89b69c2b068fc378daa952ba7f163c4a11628f55a4df523b3ef60405160405180910390a4611f16838383600161260c565b505050565b6000611f2682610be5565b9050611f36816000846001612532565b611f3f82610be5565b90506004600083815260200190815260200160002060006101000a81549073ffffffffffffffffffffffffffffffffffffffff02191690556001600360008373ffffffffffffffffffffffffffffffffffffffff1673ffffffffffffffffffffffffffffffffffffffff168152602001908152602001600020600082825403925050819055506002600083815260200190815260200160002060006101000a81549073ffffffffffffffffffffffffffffffffffffffff021916905581600073ffffffffffffffffffffffffffffffffffffffff168273ffffffffffffffffffffffffffffffffffffffff167fddf252ad1be2c89b69c2b068fc378daa952ba7f163c4a11628f55a4df523b3ef60405160405180910390a461206581600084600161260c565b5050565b60006002600083815260200190815260200160002060009054906101000a900473ffffffffffffffffffffffffffffffffffffffff169050919050565b6002600754036120eb576040517f08c379a00000000000000000000000000000000000000000000000000000000081526004016120e290613efd565b60405180910390fd5b6002600781905550565b6001600781905550565b612107611a8b565b73ffffffffffffffffffffffffffffffffffffffff166121256112e7565b73ffffffffffffffffffffffffffffffffffffffff161461217b576040517f08c379a000000000000000000000000000000000000000000000000000000000815260040161217290613f69565b60405180910390fd5b565b6000600660009054906101000a900473ffffffffffffffffffffffffffffffffffffffff16905081600660006101000a81548173ffffffffffffffffffffffffffffffffffffffff021916908373ffffffffffffffffffffffffffffffffffffffff1602179055508173ffffffffffffffffffffffffffffffffffffffff168173ffffffffffffffffffffffffffffffffffffffff167f8be0079c531659141344cd1fd0a4f28419497f9722a3daafe3b4186f6b6457e060405160405180910390a35050565b8173ffffffffffffffffffffffffffffffffffffffff168373ffffffffffffffffffffffffffffffffffffffff16036122b1576040517f08c379a00000000000000000000000000000000000000000000000000000000081526004016122a890613fd5565b60405180910390fd5b80600560008573ffffffffffffffffffffffffffffffffffffffff1673ffffffffffffffffffffffffffffffffffffffff16815260200190815260200160002060008473ffffffffffffffffffffffffffffffffffffffff1673ffffffffffffffffffffffffffffffffffffffff16815260200190815260200160002060006101000a81548160ff0219169083151502179055508173ffffffffffffffffffffffffffffffffffffffff168373ffffffffffffffffffffffffffffffffffffffff167f17307eab39ab6107e8899845ad3d59bd9653f200f220920489ca2b5937696c31836040516123a29190612c91565b60405180910390a3505050565b6001816000016000828254019250508190555050565b600081600001549050919050565b6123ed828260405180602001604052806000815250612612565b5050565b6123fc848484611c22565b6124088484848461266d565b612447576040517f08c379a000000000000000000000000000000000000000000000000000000000815260040161243e90614067565b60405180910390fd5b50505050565b606060405180602001604052806000815250905090565b606060006001612473846127f4565b01905060008167ffffffffffffffff81111561249257612491613138565b5b6040519080825280601f01601f1916602001820160405280156124c45781602001600182028036833780820191505090505b509050600082602001820190505b600115612527578080600190039150507f3031323334353637383961626364656600000000000000000000000000000000600a86061a8153600a858161251b5761251a6138d9565b5b049450600085036124d2575b819350505050919050565b61253e84848484612947565b600a600083815260200190815260200160002060040160019054906101000a900460ff16156125a2576040517f08c379a0000000000000000000000000000000000000000000000000000000008152600401612599906140d3565b60405180910390fd5b600a600083815260200190815260200160002060040160009054906101000a900460ff1615612606576040517f08c379a00000000000000000000000000000000000000000000000000000000081526004016125fd9061413f565b60405180910390fd5b50505050565b50505050565b61261c838361294d565b612629600084848461266d565b612668576040517f08c379a000000000000000000000000000000000000000000000000000000000815260040161265f90614067565b60405180910390fd5b505050565b600061268e8473ffffffffffffffffffffffffffffffffffffffff16612b6a565b156127e7578373ffffffffffffffffffffffffffffffffffffffff1663150b7a026126b7611a8b565b8786866040518563ffffffff1660e01b81526004016126d994939291906141b4565b6020604051808303816000875af192505050801561271557506040513d601f19601f820116820180604052508101906127129190614215565b60015b612797573d8060008114612745576040519150601f19603f3d011682016040523d82523d6000602084013e61274a565b606091505b50600081510361278f576040517f08c379a000000000000000000000000000000000000000000000000000000000815260040161278690614067565b60405180910390fd5b805181602001fd5b63150b7a0260e01b7bffffffffffffffffffffffffffffffffffffffffffffffffffffffff1916817bffffffffffffffffffffffffffffffffffffffffffffffffffffffff1916149150506127ec565b600190505b949350505050565b600080600090507a184f03e93ff9f4daa797ed6e38ed64bf6a1f0100000000000000008310612852577a184f03e93ff9f4daa797ed6e38ed64bf6a1f0100000000000000008381612848576128476138d9565b5b0492506040810190505b6d04ee2d6d415b85acef8100000000831061288f576d04ee2d6d415b85acef81000000008381612885576128846138d9565b5b0492506020810190505b662386f26fc1000083106128be57662386f26fc1000083816128b4576128b36138d9565b5b0492506010810190505b6305f5e10083106128e7576305f5e10083816128dd576128dc6138d9565b5b0492506008810190505b612710831061290c576127108381612902576129016138d9565b5b0492506004810190505b6064831061292f5760648381612925576129246138d9565b5b0492506002810190505b600a831061293e576001810190505b80915050919050565b50505050565b600073ffffffffffffffffffffffffffffffffffffffff168273ffffffffffffffffffffffffffffffffffffffff16036129bc576040517f08c379a00000000000000000000000000000000000000000000000000000000081526004016129b39061428e565b60405180910390fd5b6129c581611b4c565b15612a05576040517f08c379a00000000000000000000000000000000000000000000000000000000081526004016129fc906142fa565b60405180910390fd5b612a13600083836001612532565b612a1c81611b4c565b15612a5c576040517f08c379a0000000000000000000000000000000000000000000000000000000008152600401612a53906142fa565b60405180910390fd5b6001600360008473ffffffffffffffffffffffffffffffffffffffff1673ffffffffffffffffffffffffffffffffffffffff16815260200190815260200160002060008282540192505081905550816002600083815260200190815260200160002060006101000a81548173ffffffffffffffffffffffffffffffffffffffff021916908373ffffffffffffffffffffffffffffffffffffffff160217905550808273ffffffffffffffffffffffffffffffffffffffff16600073ffffffffffffffffffffffffffffffffffffffff167fddf252ad1be2c89b69c2b068fc378daa952ba7f163c4a11628f55a4df523b3ef60405160405180910390a4612b6660008383600161260c565b5050565b6000808273ffffffffffffffffffffffffffffffffffffffff163b119050919050565b6040518060c0016040528060008152602001600073ffffffffffffffffffffffffffffffffffffffff16815260200160008152602001600081526020016000151581526020016000151581525090565b6000604051905090565b600080fd5b600080fd5b60007fffffffff0000000000000000000000000000000000000000000000000000000082169050919050565b612c2681612bf1565b8114612c3157600080fd5b50565b600081359050612c4381612c1d565b92915050565b600060208284031215612c5f57612c5e612be7565b5b6000612c6d84828501612c34565b91505092915050565b60008115159050919050565b612c8b81612c76565b82525050565b6000602082019050612ca66000830184612c82565b92915050565b600081519050919050565b600082825260208201905092915050565b60005b83811015612ce6578082015181840152602081019050612ccb565b60008484015250505050565b6000601f19601f8301169050919050565b6000612d0e82612cac565b612d188185612cb7565b9350612d28818560208601612cc8565b612d3181612cf2565b840191505092915050565b60006020820190508181036000830152612d568184612d03565b905092915050565b6000819050919050565b612d7181612d5e565b8114612d7c57600080fd5b50565b600081359050612d8e81612d68565b92915050565b600060208284031215612daa57612da9612be7565b5b6000612db884828501612d7f565b91505092915050565b600073ffffffffffffffffffffffffffffffffffffffff82169050919050565b6000612dec82612dc1565b9050919050565b612dfc81612de1565b82525050565b6000602082019050612e176000830184612df3565b92915050565b612e2681612de1565b8114612e3157600080fd5b50565b600081359050612e4381612e1d565b92915050565b60008060408385031215612e6057612e5f612be7565b5b6000612e6e85828601612e34565b9250506020612e7f85828601612d7f565b9150509250929050565b612e9281612d5e565b82525050565b6000612ea382612dc1565b9050919050565b612eb381612e98565b82525050565b612ec281612c76565b82525050565b60c082016000820151612ede6000850182612e89565b506020820151612ef16020850182612eaa565b506040820151612f046040850182612e89565b506060820151612f176060850182612e89565b506080820151612f2a6080850182612eb9565b5060a0820151612f3d60a0850182612eb9565b50505050565b600060c082019050612f586000830184612ec8565b92915050565b6000819050919050565b6000612f83612f7e612f7984612dc1565b612f5e565b612dc1565b9050919050565b6000612f9582612f68565b9050919050565b6000612fa782612f8a565b9050919050565b612fb781612f9c565b82525050565b6000602082019050612fd26000830184612fae565b92915050565b600080600060608486031215612ff157612ff0612be7565b5b6000612fff86828701612e34565b935050602061301086828701612e34565b925050604061302186828701612d7f565b9150509250925092565b61303481612d5e565b82525050565b600060208201905061304f600083018461302b565b92915050565b60006020828403121561306b5761306a612be7565b5b600061307984828501612e34565b91505092915050565b61308b81612c76565b811461309657600080fd5b50565b6000813590506130a881613082565b92915050565b600080604083850312156130c5576130c4612be7565b5b60006130d385828601612e34565b92505060206130e485828601613099565b9150509250929050565b6000806040838503121561310557613104612be7565b5b600061311385828601612d7f565b925050602061312485828601612d7f565b9150509250929050565b600080fd5b600080fd5b7f4e487b7100000000000000000000000000000000000000000000000000000000600052604160045260246000fd5b61317082612cf2565b810181811067ffffffffffffffff8211171561318f5761318e613138565b5b80604052505050565b60006131a2612bdd565b90506131ae8282613167565b919050565b600067ffffffffffffffff8211156131ce576131cd613138565b5b6131d782612cf2565b9050602081019050919050565b82818337600083830152505050565b6000613206613201846131b3565b613198565b90508281526020810184848401111561322257613221613133565b5b61322d8482856131e4565b509392505050565b600082601f83011261324a5761324961312e565b5b813561325a8482602086016131f3565b91505092915050565b6000806000806080858703121561327d5761327c612be7565b5b600061328b87828801612e34565b945050602061329c87828801612e34565b93505060406132ad87828801612d7f565b925050606085013567ffffffffffffffff8111156132ce576132cd612bec565b5b6132da87828801613235565b91505092959194509250565b6132ef81612e98565b82525050565b600060c08201905061330a600083018961302b565b61331760208301886132e6565b613324604083018761302b565b613331606083018661302b565b61333e6080830185612c82565b61334b60a0830184612c82565b979650505050505050565b6000806040838503121561336d5761336c612be7565b5b600061337b85828601612e34565b925050602061338c85828601612e34565b9150509250929050565b7f4e487b7100000000000000000000000000000000000000000000000000000000600052602260045260246000fd5b600060028204905060018216806133dd57607f821691505b6020821081036133f0576133ef613396565b5b50919050565b7f4552433732313a20617070726f76616c20746f2063757272656e74206f776e6560008201527f7200000000000000000000000000000000000000000000000000000000000000602082015250565b6000613452602183612cb7565b915061345d826133f6565b604082019050919050565b6000602082019050818103600083015261348181613445565b9050919050565b7f4552433732313a20617070726f76652063616c6c6572206973206e6f7420746f60008201527f6b656e206f776e6572206f7220617070726f76656420666f7220616c6c000000602082015250565b60006134e4603d83612cb7565b91506134ef82613488565b604082019050919050565b60006020820190508181036000830152613513816134d7565b9050919050565b7f4c697374696e6720646f6573206e6f7420657869737400000000000000000000600082015250565b6000613550601683612cb7565b915061355b8261351a565b602082019050919050565b6000602082019050818103600083015261357f81613543565b9050919050565b7f4552433732313a2063616c6c6572206973206e6f7420746f6b656e206f776e6560008201527f72206f7220617070726f76656400000000000000000000000000000000000000602082015250565b60006135e2602d83612cb7565b91506135ed82613586565b604082019050919050565b60006020820190508181036000830152613611816135d5565b9050919050565b7f50726f6475637420616c726561647920736f6c64000000000000000000000000600082015250565b600061364e601483612cb7565b915061365982613618565b602082019050919050565b6000602082019050818103600083015261367d81613641565b9050919050565b7f4c697374696e6720697320646973707574656400000000000000000000000000600082015250565b60006136ba601383612cb7565b91506136c582613684565b602082019050919050565b600060208201905081810360008301526136e9816136ad565b9050919050565b7f4f6e6c79206f776e65722063616e2063616e63656c0000000000000000000000600082015250565b6000613726601583612cb7565b9150613731826136f0565b602082019050919050565b6000602082019050818103600083015261375581613719565b9050919050565b7f4552433732313a20696e76616c696420746f6b656e2049440000000000000000600082015250565b6000613792601883612cb7565b915061379d8261375c565b602082019050919050565b600060208201905081810360008301526137c181613785565b9050919050565b7f4e487b7100000000000000000000000000000000000000000000000000000000600052601160045260246000fd5b600061380282612d5e565b915061380d83612d5e565b9250828201905080821115613825576138246137c8565b5b92915050565b7f4469737075746520706572696f64206e6f74206f766572000000000000000000600082015250565b6000613861601783612cb7565b915061386c8261382b565b602082019050919050565b6000602082019050818103600083015261389081613854565b9050919050565b60006138a282612d5e565b91506138ad83612d5e565b92508282026138bb81612d5e565b915082820484148315176138d2576138d16137c8565b5b5092915050565b7f4e487b7100000000000000000000000000000000000000000000000000000000600052601260045260246000fd5b600061391382612d5e565b915061391e83612d5e565b92508261392e5761392d6138d9565b5b828204905092915050565b600061394482612d5e565b915061394f83612d5e565b9250828203905081811115613967576139666137c8565b5b92915050565b60006060820190506139826000830186612df3565b61398f6020830185612df3565b61399c604083018461302b565b949350505050565b6000815190506139b381613082565b92915050565b6000602082840312156139cf576139ce612be7565b5b60006139dd848285016139a4565b91505092915050565b7f5061796d656e74206661696c6564000000000000000000000000000000000000600082015250565b6000613a1c600e83612cb7565b9150613a27826139e6565b602082019050919050565b60006020820190508181036000830152613a4b81613a0f565b9050919050565b6000613a5d82612f8a565b9050919050565b613a6d81613a52565b82525050565b6000604082019050613a886000830185613a64565b613a95602083018461302b565b9392505050565b7f5472616e7366657220746f2073656c6c6572206661696c656400000000000000600082015250565b6000613ad2601983612cb7565b9150613add82613a9c565b602082019050919050565b60006020820190508181036000830152613b0181613ac5565b9050919050565b6000604082019050613b1d6000830185612df3565b613b2a602083018461302b565b9392505050565b7f506c6174666f726d20666565207472616e73666572206661696c656400000000600082015250565b6000613b67601c83612cb7565b9150613b7282613b31565b602082019050919050565b60006020820190508181036000830152613b9681613b5a565b9050919050565b7f4552433732313a2061646472657373207a65726f206973206e6f74206120766160008201527f6c6964206f776e65720000000000000000000000000000000000000000000000602082015250565b6000613bf9602983612cb7565b9150613c0482613b9d565b604082019050919050565b60006020820190508181036000830152613c2881613bec565b9050919050565b7f5072696365206d7573742062652067726561746572207468616e207a65726f00600082015250565b6000613c65601f83612cb7565b9150613c7082613c2f565b602082019050919050565b60006020820190508181036000830152613c9481613c58565b9050919050565b600081905092915050565b6000613cb182612cac565b613cbb8185613c9b565b9350613ccb818560208601612cc8565b80840191505092915050565b6000613ce38285613ca6565b9150613cef8284613ca6565b91508190509392505050565b7f4f776e61626c653a206e6577206f776e657220697320746865207a65726f206160008201527f6464726573730000000000000000000000000000000000000000000000000000602082015250565b6000613d57602683612cb7565b9150613d6282613cfb565b604082019050919050565b60006020820190508181036000830152613d8681613d4a565b9050919050565b7f4552433732313a207472616e736665722066726f6d20696e636f72726563742060008201527f6f776e6572000000000000000000000000000000000000000000000000000000602082015250565b6000613de9602583612cb7565b9150613df482613d8d565b604082019050919050565b60006020820190508181036000830152613e1881613ddc565b9050919050565b7f4552433732313a207472616e7366657220746f20746865207a65726f2061646460008201527f7265737300000000000000000000000000000000000000000000000000000000602082015250565b6000613e7b602483612cb7565b9150613e8682613e1f565b604082019050919050565b60006020820190508181036000830152613eaa81613e6e565b9050919050565b7f5265656e7472616e637947756172643a207265656e7472616e742063616c6c00600082015250565b6000613ee7601f83612cb7565b9150613ef282613eb1565b602082019050919050565b60006020820190508181036000830152613f1681613eda565b9050919050565b7f4f776e61626c653a2063616c6c6572206973206e6f7420746865206f776e6572600082015250565b6000613f53602083612cb7565b9150613f5e82613f1d565b602082019050919050565b60006020820190508181036000830152613f8281613f46565b9050919050565b7f4552433732313a20617070726f766520746f2063616c6c657200000000000000600082015250565b6000613fbf601983612cb7565b9150613fca82613f89565b602082019050919050565b60006020820190508181036000830152613fee81613fb2565b9050919050565b7f4552433732313a207472616e7366657220746f206e6f6e20455243373231526560008201527f63656976657220696d706c656d656e7465720000000000000000000000000000602082015250565b6000614051603283612cb7565b915061405c82613ff5565b604082019050919050565b6000602082019050818103600083015261408081614044565b9050919050565b7f43616e6e6f74207472616e7366657220736f6c64206c697374696e6700000000600082015250565b60006140bd601c83612cb7565b91506140c882614087565b602082019050919050565b600060208201905081810360008301526140ec816140b0565b9050919050565b7f43616e6e6f74207472616e73666572206469737075746564206c697374696e67600082015250565b6000614129602083612cb7565b9150614134826140f3565b602082019050919050565b600060208201905081810360008301526141588161411c565b9050919050565b600081519050919050565b600082825260208201905092915050565b60006141868261415f565b614190818561416a565b93506141a0818560208601612cc8565b6141a981612cf2565b840191505092915050565b60006080820190506141c96000830187612df3565b6141d66020830186612df3565b6141e3604083018561302b565b81810360608301526141f5818461417b565b905095945050505050565b60008151905061420f81612c1d565b92915050565b60006020828403121561422b5761422a612be7565b5b600061423984828501614200565b91505092915050565b7f4552433732313a206d696e7420746f20746865207a65726f2061646472657373600082015250565b6000614278602083612cb7565b915061428382614242565b602082019050919050565b600060208201905081810360008301526142a78161426b565b9050919050565b7f4552433732313a20746f6b656e20616c7265616479206d696e74656400000000600082015250565b60006142e4601c83612cb7565b91506142ef826142ae565b602082019050919050565b60006020820190508181036000830152614313816142d7565b905091905056fea26469706673582212208a758b145caccd34a4ddb38ff0df9ec7cfeacdf52fe9f62b26d0c0b264b9c1df64736f6c63430008130033",
  "linkReferences": {},
  "deployedLinkReferences": {}
}