{
  "_format": "hh-sol-artifact-1",
  "contractName": "ReluxMarketplace",
  "sourceName": "contracts/ReluxMarketplace.sol",
  "abi": [
    {
      "inputs": [],
      "stateMutability": "nonpayable",
      "type": "constructor"
    },
    {
      "anonymous": false,
      "inputs": [
        {
          "indexed": true,
          "internalType": "uint256",
          "name": "listingId",
          "type": "uint256"
        }
      ],
      "name": "ListingCancelled",
      "type": "event"
    },
    {
      "anonymous": false,
      "inputs": [
        {
          "indexed": true,
          "internalType": "address",
          "name": "previousOwner",
          "type": "address"
        },
        {
          "indexed": true,
          "internalType": "address",
          "name": "newOwner",
          "type": "address"
        }
      ],
      "name": "OwnershipTransferred",
      "type": "event"
    },
    {
      "anonymous": false,
      "inputs": [
        {
          "indexed": true,
          "internalType": "uint256",
          "name": "listingId",
          "type": "uint256"
        },
        {
          "indexed": true,
          "internalType": "uint256",
          "name": "watchId",
          "type": "uint256"
        },
        {
          "indexed": false,
          "internalType": "address",
          "name": "seller",
          "type": "address"
        },
        {
          "indexed": false,
          "internalType": "uint256",
          "name": "price",
          "type": "uint256"
        }
      ],
      "name": "WatchListed",
      "type": "event"
    },
    {
      "anonymous": false,
      "inputs": [
        {
          "indexed": true,
          "internalType": "uint256",
          "name": "listingId",
          "type": "uint256"
        },
        {
          "indexed": true,
          "internalType": "uint256",
          "name": "watchId",
          "type": "uint256"
        },
        {
          "indexed": false,
          "internalType": "address",
          "name": "buyer",
          "type": "address"
        },
        {
          "indexed": false,
          "internalType": "uint256",
          "name": "price",
          "type": "uint256"
        }
      ],
      "name": "WatchSold",
      "type": "event"
    },
    {
      "inputs": [],
      "name": "PLATFORM_FEE_PERCENT",
      "outputs": [
        {
          "internalType": "uint256",
          "name": "",
          "type": "uint256"
        }
      ],
      "stateMutability": "view",
      "type": "function"
    },
    {
      "inputs": [
        {
          "internalType": "uint256",
          "name": "listingId",
          "type": "uint256"
        }
      ],
      "name": "buyWatch",
      "outputs": [],
      "stateMutability": "payable",
      "type": "function"
    },
    {
      "inputs": [
        {
          "internalType": "uint256",
          "name": "listingId",
          "type": "uint256"
        }
      ],
      "name": "cancelListing",
      "outputs": [],
      "stateMutability": "nonpayable",
      "type": "function"
    },
    {
      "inputs": [
        {
          "internalType": "uint256",
          "name": "watchId",
          "type": "uint256"
        },
        {
          "internalType": "uint256",
          "name": "price",
          "type": "uint256"
        }
      ],
      "name": "createListing",
      "outputs": [],
      "stateMutability": "nonpayable",
      "type": "function"
    },
    {
      "inputs": [],
      "name": "deploymentChainId",
      "outputs": [
        {
          "internalType": "uint256",
          "name": "",
          "type": "uint256"
        }
      ],
      "stateMutability": "view",
      "type": "function"
    },
    {
      "inputs": [
        {
          "internalType": "uint256",
          "name": "listingId",
          "type": "uint256"
        }
      ],
      "name": "getListing",
      "outputs": [
        {
          "components": [
            {
              "internalType": "uint256",
              "name": "watchId",
              "type": "uint256"
            },
            {
              "internalType": "address payable",
              "name": "seller",
              "type": "address"
            },
            {
              "internalType": "uint256",
              "name": "price",
              "type": "uint256"
            },
            {
              "internalType": "bool",
              "name": "isSold",
              "type": "bool"
            }
          ],
          "internalType": "struct ReluxMarketplace.Listing",
          "name": "",
          "type": "tuple"
        }
      ],
      "stateMutability": "view",
      "type": "function"
    },
    {
      "inputs": [],
      "name": "listingCount",
      "outputs": [
        {
          "internalType": "uint256",
          "name": "",
          "type": "uint256"
        }
      ],
      "stateMutability": "view",
      "type": "function"
    },
    {
      "inputs": [
        {
          "internalType": "uint256",
          "name": "",
          "type": "uint256"
        }
      ],
      "name": "listings",
      "outputs": [
        {
          "internalType": "uint256",
          "name": "watchId",
          "type": "uint256"
        },
        {
          "internalType": "address payable",
          "name": "seller",
          "type": "address"
        },
        {
          "internalType": "uint256",
          "name": "price",
          "type": "uint256"
        },
        {
          "internalType": "bool",
          "name": "isSold",
          "type": "bool"
        }
      ],
      "stateMutability": "view",
      "type": "function"
    },
    {
      "inputs": [],
      "name": "owner",
      "outputs": [
        {
          "internalType": "address",
          "name": "",
          "type": "address"
        }
      ],
      "stateMutability": "view",
      "type": "function"
    },
    {
      "inputs": [],
      "name": "renounceOwnership",
      "outputs": [],
      "stateMutability": "nonpayable",
      "type": "function"
    },
    {
      "inputs": [
        {
          "internalType": "address",
          "name": "newOwner",
          "type": "address"
        }
      ],
      "name": "transferOwnership",
      "outputs": [],
      "stateMutability": "nonpayable",
      "type": "function"
    }
  ],
  "bytecode": "0x608060405234801561001057600080fd5b5061002d61002261004060201b60201c565b61004860201b60201c565b600180819055504660048190555061010c565b600033905090565b60008060009054906101000a900473ffffffffffffffffffffffffffffffffffffffff169050816000806101000a81548173ffffffffffffffffffffffffffffffffffffffff021916908373ffffffffffffffffffffffffffffffffffffffff1602179055508173ffffffffffffffffffffffffffffffffffffffff168173ffffffffffffffffffffffffffffffffffffffff167f8be0079c531659141344cd1fd0a4f28419497f9722a3daafe3b4186f6b6457e060405160405180910390a35050565b6114a98061011b6000396000f3fe60806040526004361061009c5760003560e01c80638da5cb5b116100645780638da5cb5b14610165578063a79123a914610190578063a9b07c26146101b9578063cd0d0096146101e4578063de74e57b1461020f578063f2fde38b1461024f5761009c565b8063107a274a146100a1578063305a67a8146100de578063560d52d4146101075780636a3fd17714610132578063715018a61461014e575b600080fd5b3480156100ad57600080fd5b506100c860048036038101906100c39190610c4a565b610278565b6040516100d59190610d37565b60405180910390f35b3480156100ea57600080fd5b5061010560048036038101906101009190610c4a565b61032a565b005b34801561011357600080fd5b5061011c6104b7565b6040516101299190610d61565b60405180910390f35b61014c60048036038101906101479190610c4a565b6104bc565b005b34801561015a57600080fd5b5061016361079b565b005b34801561017157600080fd5b5061017a6107af565b6040516101879190610d9d565b60405180910390f35b34801561019c57600080fd5b506101b760048036038101906101b29190610db8565b6107d8565b005b3480156101c557600080fd5b506101ce610941565b6040516101db9190610d61565b60405180910390f35b3480156101f057600080fd5b506101f9610947565b6040516102069190610d61565b60405180910390f35b34801561021b57600080fd5b5061023660048036038101906102319190610c4a565b61094d565b6040516102469493929190610e16565b60405180910390f35b34801561025b57600080fd5b5061027660048036038101906102719190610e87565b6109aa565b005b610280610bcf565b60026000838152602001908152602001600020604051806080016040529081600082015481526020016001820160009054906101000a900473ffffffffffffffffffffffffffffffffffffffff1673ffffffffffffffffffffffffffffffffffffffff1673ffffffffffffffffffffffffffffffffffffffff168152602001600282015481526020016003820160009054906101000a900460ff1615151515815250509050919050565b60006002600083815260200190815260200160002090508060010160009054906101000a900473ffffffffffffffffffffffffffffffffffffffff1673ffffffffffffffffffffffffffffffffffffffff163373ffffffffffffffffffffffffffffffffffffffff16146103d3576040517f08c379a00000000000000000000000000000000000000000000000000000000081526004016103ca90610f11565b60405180910390fd5b8060030160009054906101000a900460ff1615610425576040517f08c379a000000000000000000000000000000000000000000000000000000000815260040161041c90610f7d565b60405180910390fd5b600260008381526020019081526020016000206000808201600090556001820160006101000a81549073ffffffffffffffffffffffffffffffffffffffff021916905560028201600090556003820160006101000a81549060ff02191690555050817f411aee90354c51b1b04cd563fcab2617142a9d50da19232d888547c8a1b7fd8a60405160405180910390a25050565b600281565b6104c4610a2d565b60006002600083815260200190815260200160002090508060030160009054906101000a900460ff161561052d576040517f08c379a000000000000000000000000000000000000000000000000000000000815260040161052490610f7d565b60405180910390fd5b80600201543414610573576040517f08c379a000000000000000000000000000000000000000000000000000000000815260040161056a90610fe9565b60405180910390fd5b60006064600283600201546105889190611038565b61059291906110a9565b905060008183600201546105a691906110da565b905060018360030160006101000a81548160ff02191690831515021790555060008360010160009054906101000a900473ffffffffffffffffffffffffffffffffffffffff1673ffffffffffffffffffffffffffffffffffffffff168260405161060f9061113f565b60006040518083038185875af1925050503d806000811461064c576040519150601f19603f3d011682016040523d82523d6000602084013e610651565b606091505b5050905080610695576040517f08c379a000000000000000000000000000000000000000000000000000000000815260040161068c906111a0565b60405180910390fd5b600061069f6107af565b73ffffffffffffffffffffffffffffffffffffffff16846040516106c29061113f565b60006040518083038185875af1925050503d80600081146106ff576040519150601f19603f3d011682016040523d82523d6000602084013e610704565b606091505b5050905080610748576040517f08c379a000000000000000000000000000000000000000000000000000000000815260040161073f9061120c565b60405180910390fd5b8460000154867f89ce126afc5205d6a5156686b57ef436a8adfece97fe61771bbec0e0cf903b3433886002015460405161078392919061122c565b60405180910390a35050505050610798610a7c565b50565b6107a3610a85565b6107ad6000610b03565b565b60008060009054906101000a900473ffffffffffffffffffffffffffffffffffffffff16905090565b6000811161081b576040517f08c379a0000000000000000000000000000000000000000000000000000000008152600401610812906112a1565b60405180910390fd5b6003600081548092919061082e906112c1565b919050555060405180608001604052808381526020013373ffffffffffffffffffffffffffffffffffffffff168152602001828152602001600015158152506002600060035481526020019081526020016000206000820151816000015560208201518160010160006101000a81548173ffffffffffffffffffffffffffffffffffffffff021916908373ffffffffffffffffffffffffffffffffffffffff1602179055506040820151816002015560608201518160030160006101000a81548160ff021916908315150217905550905050816003547fdb78b5d1ea5aa2719492918c0503657ec091d87a4dbab1a90b06ec83475e0bd8338460405161093592919061122c565b60405180910390a35050565b60035481565b60045481565b60026020528060005260406000206000915090508060000154908060010160009054906101000a900473ffffffffffffffffffffffffffffffffffffffff16908060020154908060030160009054906101000a900460ff16905084565b6109b2610a85565b600073ffffffffffffffffffffffffffffffffffffffff168173ffffffffffffffffffffffffffffffffffffffff1603610a21576040517f08c379a0000000000000000000000000000000000000000000000000000000008152600401610a189061137b565b60405180910390fd5b610a2a81610b03565b50565b600260015403610a72576040517f08c379a0000000000000000000000000000000000000000000000000000000008152600401610a69906113e7565b60405180910390fd5b6002600181905550565b60018081905550565b610a8d610bc7565b73ffffffffffffffffffffffffffffffffffffffff16610aab6107af565b73ffffffffffffffffffffffffffffffffffffffff1614610b01576040517f08c379a0000000000000000000000000000000000000000000000000000000008152600401610af890611453565b60405180910390fd5b565b60008060009054906101000a900473ffffffffffffffffffffffffffffffffffffffff169050816000806101000a81548173ffffffffffffffffffffffffffffffffffffffff021916908373ffffffffffffffffffffffffffffffffffffffff1602179055508173ffffffffffffffffffffffffffffffffffffffff168173ffffffffffffffffffffffffffffffffffffffff167f8be0079c531659141344cd1fd0a4f28419497f9722a3daafe3b4186f6b6457e060405160405180910390a35050565b600033905090565b604051806080016040528060008152602001600073ffffffffffffffffffffffffffffffffffffffff168152602001600081526020016000151581525090565b600080fd5b6000819050919050565b610c2781610c14565b8114610c3257600080fd5b50565b600081359050610c4481610c1e565b92915050565b600060208284031215610c6057610c5f610c0f565b5b6000610c6e84828501610c35565b91505092915050565b610c8081610c14565b82525050565b600073ffffffffffffffffffffffffffffffffffffffff82169050919050565b6000610cb182610c86565b9050919050565b610cc181610ca6565b82525050565b60008115159050919050565b610cdc81610cc7565b82525050565b608082016000820151610cf86000850182610c77565b506020820151610d0b6020850182610cb8565b506040820151610d1e6040850182610c77565b506060820151610d316060850182610cd3565b50505050565b6000608082019050610d4c6000830184610ce2565b92915050565b610d5b81610c14565b82525050565b6000602082019050610d766000830184610d52565b92915050565b6000610d8782610c86565b9050919050565b610d9781610d7c565b82525050565b6000602082019050610db26000830184610d8e565b92915050565b60008060408385031215610dcf57610dce610c0f565b5b6000610ddd85828601610c35565b9250506020610dee85828601610c35565b9150509250929050565b610e0181610ca6565b82525050565b610e1081610cc7565b82525050565b6000608082019050610e2b6000830187610d52565b610e386020830186610df8565b610e456040830185610d52565b610e526060830184610e07565b95945050505050565b610e6481610d7c565b8114610e6f57600080fd5b50565b600081359050610e8181610e5b565b92915050565b600060208284031215610e9d57610e9c610c0f565b5b6000610eab84828501610e72565b91505092915050565b600082825260208201905092915050565b7f4f6e6c792073656c6c65722063616e2063616e63656c00000000000000000000600082015250565b6000610efb601683610eb4565b9150610f0682610ec5565b602082019050919050565b60006020820190508181036000830152610f2a81610eee565b9050919050565b7f576174636820616c726561647920736f6c640000000000000000000000000000600082015250565b6000610f67601283610eb4565b9150610f7282610f31565b602082019050919050565b60006020820190508181036000830152610f9681610f5a565b9050919050565b7f496e636f7272656374207061796d656e7420616d6f756e740000000000000000600082015250565b6000610fd3601883610eb4565b9150610fde82610f9d565b602082019050919050565b6000602082019050818103600083015261100281610fc6565b9050919050565b7f4e487b7100000000000000000000000000000000000000000000000000000000600052601160045260246000fd5b600061104382610c14565b915061104e83610c14565b925082820261105c81610c14565b9150828204841483151761107357611072611009565b5b5092915050565b7f4e487b7100000000000000000000000000000000000000000000000000000000600052601260045260246000fd5b60006110b482610c14565b91506110bf83610c14565b9250826110cf576110ce61107a565b5b828204905092915050565b60006110e582610c14565b91506110f083610c14565b925082820390508181111561110857611107611009565b5b92915050565b600081905092915050565b50565b600061112960008361110e565b915061113482611119565b600082019050919050565b600061114a8261111c565b9150819050919050565b7f5472616e7366657220746f2073656c6c6572206661696c656400000000000000600082015250565b600061118a601983610eb4565b915061119582611154565b602082019050919050565b600060208201905081810360008301526111b98161117d565b9050919050565b7f506c6174666f726d20666565207472616e73666572206661696c656400000000600082015250565b60006111f6601c83610eb4565b9150611201826111c0565b602082019050919050565b60006020820190508181036000830152611225816111e9565b9050919050565b60006040820190506112416000830185610d8e565b61124e6020830184610d52565b9392505050565b7f5072696365206d7573742062652067726561746572207468616e207a65726f00600082015250565b600061128b601f83610eb4565b915061129682611255565b602082019050919050565b600060208201905081810360008301526112ba8161127e565b9050919050565b60006112cc82610c14565b91507fffffffffffffffffffffffffffffffffffffffffffffffffffffffffffffffff82036112fe576112fd611009565b5b600182019050919050565b7f4f776e61626c653a206e6577206f776e657220697320746865207a65726f206160008201527f6464726573730000000000000000000000000000000000000000000000000000602082015250565b6000611365602683610eb4565b915061137082611309565b604082019050919050565b6000602082019050818103600083015261139481611358565b9050919050565b7f5265656e7472616e637947756172643a207265656e7472616e742063616c6c00600082015250565b60006113d1601f83610eb4565b91506113dc8261139b565b602082019050919050565b60006020820190508181036000830152611400816113c4565b9050919050565b7f4f776e61626c653a2063616c6c6572206973206e6f7420746865206f776e6572600082015250565b600061143d602083610eb4565b915061144882611407565b602082019050919050565b6000602082019050818103600083015261146c81611430565b905091905056fea2646970667358221220630dccfcb8590456c1404b7a0f9d7ea3c3275a32e8022cf4630ba660b021705364736f6c63430008130033",
  "linkReferences": {},
  "deployedLinkReferences": {}
}