{
  "_format": "hh-sol-artifact-1",
  "contractName": "ReluxMarketplace",
  "sourceName": "contracts/ReluxMarketplace.sol",
  "abi": [
    {
      "inputs": [
        {
          "internalType": "address",
          "name": "_usdcToken",
          "type": "address"
        }
      ],
      "stateMutability": "nonpayable",
      "type": "constructor"
    },
    {
      "anonymous": false,
      "inputs": [
        {
          "indexed": true,
          "internalType": "uint256",
          "name": "listingId",
          "type": "uint256"
        }
      ],
      "name": "ListingCancelled",
      "type": "event"
    },
    {
      "anonymous": false,
      "inputs": [
        {
          "indexed": true,
          "internalType": "uint256",
          "name": "listingId",
          "type": "uint256"
        },
        {
          "indexed": false,
          "internalType": "address",
          "name": "disputer",
          "type": "address"
        }
      ],
      "name": "ListingDisputed",
      "type": "event"
    },
    {
      "anonymous": false,
      "inputs": [
        {
          "indexed": true,
          "internalType": "address",
          "name": "previousOwner",
          "type": "address"
        },
        {
          "indexed": true,
          "internalType": "address",
          "name": "newOwner",
          "type": "address"
        }
      ],
      "name": "OwnershipTransferred",
      "type": "event"
    },
    {
      "anonymous": false,
      "inputs": [
        {
          "indexed": true,
          "internalType": "uint256",
          "name": "listingId",
          "type": "uint256"
        },
        {
          "indexed": true,
          "internalType": "uint256",
          "name": "watchId",
          "type": "uint256"
        },
        {
          "indexed": false,
          "internalType": "address",
          "name": "seller",
          "type": "address"
        },
        {
          "indexed": false,
          "internalType": "uint256",
          "name": "price",
          "type": "uint256"
        }
      ],
      "name": "WatchListed",
      "type": "event"
    },
    {
      "anonymous": false,
      "inputs": [
        {
          "indexed": true,
          "internalType": "uint256",
          "name": "listingId",
          "type": "uint256"
        },
        {
          "indexed": true,
          "internalType": "uint256",
          "name": "watchId",
          "type": "uint256"
        },
        {
          "indexed": false,
          "internalType": "address",
          "name": "buyer",
          "type": "address"
        },
        {
          "indexed": false,
          "internalType": "uint256",
          "name": "price",
          "type": "uint256"
        }
      ],
      "name": "WatchSold",
      "type": "event"
    },
    {
      "inputs": [],
      "name": "DISPUTE_PERIOD",
      "outputs": [
        {
          "internalType": "uint256",
          "name": "",
          "type": "uint256"
        }
      ],
      "stateMutability": "view",
      "type": "function"
    },
    {
      "inputs": [],
      "name": "PLATFORM_FEE_PERCENT",
      "outputs": [
        {
          "internalType": "uint256",
          "name": "",
          "type": "uint256"
        }
      ],
      "stateMutability": "view",
      "type": "function"
    },
    {
      "inputs": [
        {
          "internalType": "uint256",
          "name": "listingId",
          "type": "uint256"
        }
      ],
      "name": "buyWatch",
      "outputs": [],
      "stateMutability": "nonpayable",
      "type": "function"
    },
    {
      "inputs": [
        {
          "internalType": "uint256",
          "name": "listingId",
          "type": "uint256"
        }
      ],
      "name": "cancelListing",
      "outputs": [],
      "stateMutability": "nonpayable",
      "type": "function"
    },
    {
      "inputs": [
        {
          "internalType": "uint256",
          "name": "watchId",
          "type": "uint256"
        },
        {
          "internalType": "uint256",
          "name": "price",
          "type": "uint256"
        }
      ],
      "name": "createListing",
      "outputs": [],
      "stateMutability": "nonpayable",
      "type": "function"
    },
    {
      "inputs": [
        {
          "internalType": "uint256",
          "name": "listingId",
          "type": "uint256"
        }
      ],
      "name": "disputeListing",
      "outputs": [],
      "stateMutability": "nonpayable",
      "type": "function"
    },
    {
      "inputs": [
        {
          "internalType": "uint256",
          "name": "listingId",
          "type": "uint256"
        }
      ],
      "name": "getListing",
      "outputs": [
        {
          "components": [
            {
              "internalType": "uint256",
              "name": "watchId",
              "type": "uint256"
            },
            {
              "internalType": "address payable",
              "name": "seller",
              "type": "address"
            },
            {
              "internalType": "uint256",
              "name": "price",
              "type": "uint256"
            },
            {
              "internalType": "uint256",
              "name": "listingTime",
              "type": "uint256"
            },
            {
              "internalType": "bool",
              "name": "isDisputed",
              "type": "bool"
            },
            {
              "internalType": "bool",
              "name": "isSold",
              "type": "bool"
            }
          ],
          "internalType": "struct ReluxMarketplace.Listing",
          "name": "",
          "type": "tuple"
        }
      ],
      "stateMutability": "view",
      "type": "function"
    },
    {
      "inputs": [],
      "name": "listingCount",
      "outputs": [
        {
          "internalType": "uint256",
          "name": "",
          "type": "uint256"
        }
      ],
      "stateMutability": "view",
      "type": "function"
    },
    {
      "inputs": [
        {
          "internalType": "uint256",
          "name": "",
          "type": "uint256"
        }
      ],
      "name": "listings",
      "outputs": [
        {
          "internalType": "uint256",
          "name": "watchId",
          "type": "uint256"
        },
        {
          "internalType": "address payable",
          "name": "seller",
          "type": "address"
        },
        {
          "internalType": "uint256",
          "name": "price",
          "type": "uint256"
        },
        {
          "internalType": "uint256",
          "name": "listingTime",
          "type": "uint256"
        },
        {
          "internalType": "bool",
          "name": "isDisputed",
          "type": "bool"
        },
        {
          "internalType": "bool",
          "name": "isSold",
          "type": "bool"
        }
      ],
      "stateMutability": "view",
      "type": "function"
    },
    {
      "inputs": [],
      "name": "owner",
      "outputs": [
        {
          "internalType": "address",
          "name": "",
          "type": "address"
        }
      ],
      "stateMutability": "view",
      "type": "function"
    },
    {
      "inputs": [],
      "name": "renounceOwnership",
      "outputs": [],
      "stateMutability": "nonpayable",
      "type": "function"
    },
    {
      "inputs": [
        {
          "internalType": "address",
          "name": "newOwner",
          "type": "address"
        }
      ],
      "name": "transferOwnership",
      "outputs": [],
      "stateMutability": "nonpayable",
      "type": "function"
    },
    {
      "inputs": [
        {
          "internalType": "address",
          "name": "newUSDCToken",
          "type": "address"
        }
      ],
      "name": "updateUSDCToken",
      "outputs": [],
      "stateMutability": "nonpayable",
      "type": "function"
    },
    {
      "inputs": [],
      "name": "usdcToken",
      "outputs": [
        {
          "internalType": "contract IERC20",
          "name": "",
          "type": "address"
        }
      ],
      "stateMutability": "view",
      "type": "function"
    }
  ],
  "bytecode": "0x60806040523480156200001157600080fd5b5060405162001ee338038062001ee38339818101604052810190620000379190620001dc565b620000576200004b620000a660201b60201c565b620000ae60201b60201c565b6001808190555080600260006101000a81548173ffffffffffffffffffffffffffffffffffffffff021916908373ffffffffffffffffffffffffffffffffffffffff160217905550506200020e565b600033905090565b60008060009054906101000a900473ffffffffffffffffffffffffffffffffffffffff169050816000806101000a81548173ffffffffffffffffffffffffffffffffffffffff021916908373ffffffffffffffffffffffffffffffffffffffff1602179055508173ffffffffffffffffffffffffffffffffffffffff168173ffffffffffffffffffffffffffffffffffffffff167f8be0079c531659141344cd1fd0a4f28419497f9722a3daafe3b4186f6b6457e060405160405180910390a35050565b600080fd5b600073ffffffffffffffffffffffffffffffffffffffff82169050919050565b6000620001a48262000177565b9050919050565b620001b68162000197565b8114620001c257600080fd5b50565b600081519050620001d681620001ab565b92915050565b600060208284031215620001f557620001f462000172565b5b60006200020584828501620001c5565b91505092915050565b611cc5806200021e6000396000f3fe608060405234801561001057600080fd5b50600436106100ea5760003560e01c80638da5cb5b1161008c578063a9b07c2611610066578063a9b07c2614610211578063de74e57b1461022f578063ebef75e514610264578063f2fde38b14610280576100ea565b80638da5cb5b146101b9578063a5bbe22b146101d7578063a79123a9146101f5576100ea565b8063560d52d4116100c8578063560d52d4146101595780636a3fd17714610177578063715018a614610193578063805351a41461019d576100ea565b8063107a274a146100ef57806311eac8551461011f578063305a67a81461013d575b600080fd5b6101096004803603810190610104919061119e565b61029c565b60405161011691906112b1565b60405180910390f35b610127610373565b604051610134919061132b565b60405180910390f35b6101576004803603810190610152919061119e565b610399565b005b6101616105bc565b60405161016e9190611355565b60405180910390f35b610191600480360381019061018c919061119e565b6105c1565b005b61019b610aaf565b005b6101b760048036038101906101b291906113ae565b610ac3565b005b6101c1610b0f565b6040516101ce91906113ea565b60405180910390f35b6101df610b38565b6040516101ec9190611355565b60405180910390f35b61020f600480360381019061020a9190611405565b610b3f565b005b610219610ce1565b6040516102269190611355565b60405180910390f35b6102496004803603810190610244919061119e565b610ce7565b60405161025b96959493929190611463565b60405180910390f35b61027e6004803603810190610279919061119e565b610d5d565b005b61029a600480360381019061029591906113ae565b610eee565b005b6102a4611113565b600360008381526020019081526020016000206040518060c0016040529081600082015481526020016001820160009054906101000a900473ffffffffffffffffffffffffffffffffffffffff1673ffffffffffffffffffffffffffffffffffffffff1673ffffffffffffffffffffffffffffffffffffffff16815260200160028201548152602001600382015481526020016004820160009054906101000a900460ff161515151581526020016004820160019054906101000a900460ff1615151515815250509050919050565b600260009054906101000a900473ffffffffffffffffffffffffffffffffffffffff1681565b806003600082815260200190815260200160002060040160019054906101000a900460ff16156103fe576040517f08c379a00000000000000000000000000000000000000000000000000000000081526004016103f590611521565b60405180910390fd5b816003600082815260200190815260200160002060040160009054906101000a900460ff1615610463576040517f08c379a000000000000000000000000000000000000000000000000000000000815260040161045a9061158d565b60405180910390fd5b60006003600085815260200190815260200160002090508060010160009054906101000a900473ffffffffffffffffffffffffffffffffffffffff1673ffffffffffffffffffffffffffffffffffffffff163373ffffffffffffffffffffffffffffffffffffffff161461050c576040517f08c379a0000000000000000000000000000000000000000000000000000000008152600401610503906115f9565b60405180910390fd5b600360008581526020019081526020016000206000808201600090556001820160006101000a81549073ffffffffffffffffffffffffffffffffffffffff0219169055600282016000905560038201600090556004820160006101000a81549060ff02191690556004820160016101000a81549060ff02191690555050837f411aee90354c51b1b04cd563fcab2617142a9d50da19232d888547c8a1b7fd8a60405160405180910390a250505050565b600281565b6105c9610f71565b806003600082815260200190815260200160002060040160019054906101000a900460ff161561062e576040517f08c379a000000000000000000000000000000000000000000000000000000000815260040161062590611521565b60405180910390fd5b816003600082815260200190815260200160002060040160009054906101000a900460ff1615610693576040517f08c379a000000000000000000000000000000000000000000000000000000000815260040161068a9061158d565b60405180910390fd5b826003600082815260200190815260200160002060040160009054906101000a900460ff1615610724576203f48060036000838152602001908152602001600020600301546106e29190611648565b4211610723576040517f08c379a000000000000000000000000000000000000000000000000000000000815260040161071a906116c8565b60405180910390fd5b5b6000600360008681526020019081526020016000209050600060646002836002015461075091906116e8565b61075a9190611759565b9050600081836002015461076e919061178a565b9050600260009054906101000a900473ffffffffffffffffffffffffffffffffffffffff1673ffffffffffffffffffffffffffffffffffffffff166323b872dd333086600201546040518463ffffffff1660e01b81526004016107d3939291906117be565b6020604051808303816000875af11580156107f2573d6000803e3d6000fd5b505050506040513d601f19601f820116820180604052508101906108169190611821565b610855576040517f08c379a000000000000000000000000000000000000000000000000000000000815260040161084c9061189a565b60405180910390fd5b600260009054906101000a900473ffffffffffffffffffffffffffffffffffffffff1673ffffffffffffffffffffffffffffffffffffffff1663a9059cbb8460010160009054906101000a900473ffffffffffffffffffffffffffffffffffffffff16836040518363ffffffff1660e01b81526004016108d69291906118db565b6020604051808303816000875af11580156108f5573d6000803e3d6000fd5b505050506040513d601f19601f820116820180604052508101906109199190611821565b610958576040517f08c379a000000000000000000000000000000000000000000000000000000000815260040161094f90611950565b60405180910390fd5b600260009054906101000a900473ffffffffffffffffffffffffffffffffffffffff1673ffffffffffffffffffffffffffffffffffffffff1663a9059cbb61099e610b0f565b846040518363ffffffff1660e01b81526004016109bc929190611970565b6020604051808303816000875af11580156109db573d6000803e3d6000fd5b505050506040513d601f19601f820116820180604052508101906109ff9190611821565b610a3e576040517f08c379a0000000000000000000000000000000000000000000000000000000008152600401610a35906119e5565b60405180910390fd5b60018360040160016101000a81548160ff0219169083151502179055508260000154877f89ce126afc5205d6a5156686b57ef436a8adfece97fe61771bbec0e0cf903b34338660020154604051610a96929190611970565b60405180910390a3505050505050610aac610fc0565b50565b610ab7610fc9565b610ac16000611047565b565b610acb610fc9565b80600260006101000a81548173ffffffffffffffffffffffffffffffffffffffff021916908373ffffffffffffffffffffffffffffffffffffffff16021790555050565b60008060009054906101000a900473ffffffffffffffffffffffffffffffffffffffff16905090565b6203f48081565b60008111610b82576040517f08c379a0000000000000000000000000000000000000000000000000000000008152600401610b7990611a51565b60405180910390fd5b60046000815480929190610b9590611a71565b91905055506040518060c001604052808381526020013373ffffffffffffffffffffffffffffffffffffffff168152602001828152602001428152602001600015158152602001600015158152506003600060045481526020019081526020016000206000820151816000015560208201518160010160006101000a81548173ffffffffffffffffffffffffffffffffffffffff021916908373ffffffffffffffffffffffffffffffffffffffff160217905550604082015181600201556060820151816003015560808201518160040160006101000a81548160ff02191690831515021790555060a08201518160040160016101000a81548160ff021916908315150217905550905050816004547fdb78b5d1ea5aa2719492918c0503657ec091d87a4dbab1a90b06ec83475e0bd83384604051610cd5929190611970565b60405180910390a35050565b60045481565b60036020528060005260406000206000915090508060000154908060010160009054906101000a900473ffffffffffffffffffffffffffffffffffffffff16908060020154908060030154908060040160009054906101000a900460ff16908060040160019054906101000a900460ff16905086565b806003600082815260200190815260200160002060040160019054906101000a900460ff1615610dc2576040517f08c379a0000000000000000000000000000000000000000000000000000000008152600401610db990611521565b60405180910390fd5b816003600082815260200190815260200160002060040160009054906101000a900460ff1615610e27576040517f08c379a0000000000000000000000000000000000000000000000000000000008152600401610e1e9061158d565b60405180910390fd5b60006003600085815260200190815260200160002090506203f4808160030154610e519190611648565b421115610e93576040517f08c379a0000000000000000000000000000000000000000000000000000000008152600401610e8a90611b05565b60405180910390fd5b60018160040160006101000a81548160ff021916908315150217905550837f1b668d59e8a06df6a66d354d695408ffd8e21aaf34190e5d3d20403ec32ba0f833604051610ee091906113ea565b60405180910390a250505050565b610ef6610fc9565b600073ffffffffffffffffffffffffffffffffffffffff168173ffffffffffffffffffffffffffffffffffffffff1603610f65576040517f08c379a0000000000000000000000000000000000000000000000000000000008152600401610f5c90611b97565b60405180910390fd5b610f6e81611047565b50565b600260015403610fb6576040517f08c379a0000000000000000000000000000000000000000000000000000000008152600401610fad90611c03565b60405180910390fd5b6002600181905550565b60018081905550565b610fd161110b565b73ffffffffffffffffffffffffffffffffffffffff16610fef610b0f565b73ffffffffffffffffffffffffffffffffffffffff1614611045576040517f08c379a000000000000000000000000000000000000000000000000000000000815260040161103c90611c6f565b60405180910390fd5b565b60008060009054906101000a900473ffffffffffffffffffffffffffffffffffffffff169050816000806101000a81548173ffffffffffffffffffffffffffffffffffffffff021916908373ffffffffffffffffffffffffffffffffffffffff1602179055508173ffffffffffffffffffffffffffffffffffffffff168173ffffffffffffffffffffffffffffffffffffffff167f8be0079c531659141344cd1fd0a4f28419497f9722a3daafe3b4186f6b6457e060405160405180910390a35050565b600033905090565b6040518060c0016040528060008152602001600073ffffffffffffffffffffffffffffffffffffffff16815260200160008152602001600081526020016000151581526020016000151581525090565b600080fd5b6000819050919050565b61117b81611168565b811461118657600080fd5b50565b60008135905061119881611172565b92915050565b6000602082840312156111b4576111b3611163565b5b60006111c284828501611189565b91505092915050565b6111d481611168565b82525050565b600073ffffffffffffffffffffffffffffffffffffffff82169050919050565b6000611205826111da565b9050919050565b611215816111fa565b82525050565b60008115159050919050565b6112308161121b565b82525050565b60c08201600082015161124c60008501826111cb565b50602082015161125f602085018261120c565b50604082015161127260408501826111cb565b50606082015161128560608501826111cb565b5060808201516112986080850182611227565b5060a08201516112ab60a0850182611227565b50505050565b600060c0820190506112c66000830184611236565b92915050565b6000819050919050565b60006112f16112ec6112e7846111da565b6112cc565b6111da565b9050919050565b6000611303826112d6565b9050919050565b6000611315826112f8565b9050919050565b6113258161130a565b82525050565b6000602082019050611340600083018461131c565b92915050565b61134f81611168565b82525050565b600060208201905061136a6000830184611346565b92915050565b600061137b826111da565b9050919050565b61138b81611370565b811461139657600080fd5b50565b6000813590506113a881611382565b92915050565b6000602082840312156113c4576113c3611163565b5b60006113d284828501611399565b91505092915050565b6113e481611370565b82525050565b60006020820190506113ff60008301846113db565b92915050565b6000806040838503121561141c5761141b611163565b5b600061142a85828601611189565b925050602061143b85828601611189565b9150509250929050565b61144e816111fa565b82525050565b61145d8161121b565b82525050565b600060c0820190506114786000830189611346565b6114856020830188611445565b6114926040830187611346565b61149f6060830186611346565b6114ac6080830185611454565b6114b960a0830184611454565b979650505050505050565b600082825260208201905092915050565b7f50726f6475637420616c726561647920736f6c64000000000000000000000000600082015250565b600061150b6014836114c4565b9150611516826114d5565b602082019050919050565b6000602082019050818103600083015261153a816114fe565b9050919050565b7f4c697374696e6720697320646973707574656400000000000000000000000000600082015250565b60006115776013836114c4565b915061158282611541565b602082019050919050565b600060208201905081810360008301526115a68161156a565b9050919050565b7f4f6e6c792073656c6c65722063616e2063616e63656c00000000000000000000600082015250565b60006115e36016836114c4565b91506115ee826115ad565b602082019050919050565b60006020820190508181036000830152611612816115d6565b9050919050565b7f4e487b7100000000000000000000000000000000000000000000000000000000600052601160045260246000fd5b600061165382611168565b915061165e83611168565b925082820190508082111561167657611675611619565b5b92915050565b7f4469737075746520706572696f64206e6f74206f766572000000000000000000600082015250565b60006116b26017836114c4565b91506116bd8261167c565b602082019050919050565b600060208201905081810360008301526116e1816116a5565b9050919050565b60006116f382611168565b91506116fe83611168565b925082820261170c81611168565b9150828204841483151761172357611722611619565b5b5092915050565b7f4e487b7100000000000000000000000000000000000000000000000000000000600052601260045260246000fd5b600061176482611168565b915061176f83611168565b92508261177f5761177e61172a565b5b828204905092915050565b600061179582611168565b91506117a083611168565b92508282039050818111156117b8576117b7611619565b5b92915050565b60006060820190506117d360008301866113db565b6117e060208301856113db565b6117ed6040830184611346565b949350505050565b6117fe8161121b565b811461180957600080fd5b50565b60008151905061181b816117f5565b92915050565b60006020828403121561183757611836611163565b5b60006118458482850161180c565b91505092915050565b7f5061796d656e74206661696c6564000000000000000000000000000000000000600082015250565b6000611884600e836114c4565b915061188f8261184e565b602082019050919050565b600060208201905081810360008301526118b381611877565b9050919050565b60006118c5826112f8565b9050919050565b6118d5816118ba565b82525050565b60006040820190506118f060008301856118cc565b6118fd6020830184611346565b9392505050565b7f5472616e7366657220746f2073656c6c6572206661696c656400000000000000600082015250565b600061193a6019836114c4565b915061194582611904565b602082019050919050565b600060208201905081810360008301526119698161192d565b9050919050565b600060408201905061198560008301856113db565b6119926020830184611346565b9392505050565b7f506c6174666f726d20666565207472616e73666572206661696c656400000000600082015250565b60006119cf601c836114c4565b91506119da82611999565b602082019050919050565b600060208201905081810360008301526119fe816119c2565b9050919050565b7f5072696365206d7573742062652067726561746572207468616e207a65726f00600082015250565b6000611a3b601f836114c4565b9150611a4682611a05565b602082019050919050565b60006020820190508181036000830152611a6a81611a2e565b9050919050565b6000611a7c82611168565b91507fffffffffffffffffffffffffffffffffffffffffffffffffffffffffffffffff8203611aae57611aad611619565b5b600182019050919050565b7f4469737075746520706572696f64206f76657200000000000000000000000000600082015250565b6000611aef6013836114c4565b9150611afa82611ab9565b602082019050919050565b60006020820190508181036000830152611b1e81611ae2565b9050919050565b7f4f776e61626c653a206e6577206f776e657220697320746865207a65726f206160008201527f6464726573730000000000000000000000000000000000000000000000000000602082015250565b6000611b816026836114c4565b9150611b8c82611b25565b604082019050919050565b60006020820190508181036000830152611bb081611b74565b9050919050565b7f5265656e7472616e637947756172643a207265656e7472616e742063616c6c00600082015250565b6000611bed601f836114c4565b9150611bf882611bb7565b602082019050919050565b60006020820190508181036000830152611c1c81611be0565b9050919050565b7f4f776e61626c653a2063616c6c6572206973206e6f7420746865206f776e6572600082015250565b6000611c596020836114c4565b9150611c6482611c23565b602082019050919050565b60006020820190508181036000830152611c8881611c4c565b905091905056fea26469706673582212202b43380984ed73ce4292e58ad204f14255e06ef176e93a0885a9f6705ba87e2e64736f6c63430008130033",
  "linkReferences": {},
  "deployedLinkReferences": {}
}